{
  "abi": [
    {
      "type": "constructor",
      "inputs": [
        {
          "name": "_myTokenAddress",
          "type": "address",
          "internalType": "address"
        },
        {
          "name": "subscriptionId",
          "type": "uint256",
          "internalType": "uint256"
        },
        {
          "name": "vrfCoordinator",
          "type": "address",
          "internalType": "address"
        },
        {
          "name": "keyHash",
          "type": "bytes32",
          "internalType": "bytes32"
        },
        {
          "name": "_callbackGasLimit",
          "type": "uint32",
          "internalType": "uint32"
        },
        {
          "name": "_requestConfirmations",
          "type": "uint16",
          "internalType": "uint16"
        },
        {
          "name": "_numWords",
          "type": "uint32",
          "internalType": "uint32"
        }
      ],
      "stateMutability": "nonpayable"
    },
    {
      "type": "function",
      "name": "BURNER_ROLE",
      "inputs": [],
      "outputs": [
        {
          "name": "",
          "type": "bytes32",
          "internalType": "bytes32"
        }
      ],
      "stateMutability": "view"
    },
    {
      "type": "function",
      "name": "DEFAULT_HISTORY_SIZE",
      "inputs": [],
      "outputs": [
        {
          "name": "",
          "type": "uint256",
          "internalType": "uint256"
        }
      ],
      "stateMutability": "view"
    },
    {
      "type": "function",
      "name": "MINTER_ROLE",
      "inputs": [],
      "outputs": [
        {
          "name": "",
          "type": "bytes32",
          "internalType": "bytes32"
        }
      ],
      "stateMutability": "view"
    },
    {
      "type": "function",
      "name": "acceptOwnership",
      "inputs": [],
      "outputs": [],
      "stateMutability": "nonpayable"
    },
    {
      "type": "function",
      "name": "canStartNewGame",
      "inputs": [
        {
          "name": "player",
          "type": "address",
          "internalType": "address"
        }
      ],
      "outputs": [
        {
          "name": "",
          "type": "bool",
          "internalType": "bool"
        }
      ],
      "stateMutability": "view"
    },
    {
      "type": "function",
      "name": "forceStopGame",
      "inputs": [
        {
          "name": "player",
          "type": "address",
          "internalType": "address"
        }
      ],
      "outputs": [],
      "stateMutability": "nonpayable"
    },
    {
      "type": "function",
      "name": "getContractBalance",
      "inputs": [],
      "outputs": [
        {
          "name": "",
          "type": "uint256",
          "internalType": "uint256"
        }
      ],
      "stateMutability": "view"
    },
    {
      "type": "function",
      "name": "getCurrentGame",
      "inputs": [
        {
          "name": "player",
          "type": "address",
          "internalType": "address"
        }
      ],
      "outputs": [
        {
          "name": "",
          "type": "tuple",
          "internalType": "struct GameState",
          "components": [
            {
              "name": "isActive",
              "type": "bool",
              "internalType": "bool"
            },
            {
              "name": "chosenNumber",
              "type": "uint256",
              "internalType": "uint256"
            },
            {
              "name": "result",
              "type": "uint256",
              "internalType": "uint256"
            },
            {
              "name": "amount",
              "type": "uint256",
              "internalType": "uint256"
            },
            {
              "name": "timestamp",
              "type": "uint256",
              "internalType": "uint256"
            },
            {
              "name": "payout",
              "type": "uint256",
              "internalType": "uint256"
            },
            {
              "name": "randomWord",
              "type": "uint256",
              "internalType": "uint256"
            },
            {
              "name": "status",
              "type": "uint8",
              "internalType": "enum GameStatus"
            }
          ]
        }
      ],
      "stateMutability": "view"
    },
    {
      "type": "function",
      "name": "getCurrentRequestDetails",
      "inputs": [
        {
          "name": "player",
          "type": "address",
          "internalType": "address"
        }
      ],
      "outputs": [
        {
          "name": "requestId",
          "type": "uint256",
          "internalType": "uint256"
        },
        {
          "name": "requestFulfilled",
          "type": "bool",
          "internalType": "bool"
        },
        {
          "name": "requestActive",
          "type": "bool",
          "internalType": "bool"
        }
      ],
      "stateMutability": "view"
    },
    {
      "type": "function",
      "name": "getGameStatus",
      "inputs": [
        {
          "name": "player",
          "type": "address",
          "internalType": "address"
        }
      ],
      "outputs": [
        {
          "name": "isActive",
          "type": "bool",
          "internalType": "bool"
        },
        {
          "name": "status",
          "type": "uint8",
          "internalType": "enum GameStatus"
        },
        {
          "name": "chosenNumber",
          "type": "uint256",
          "internalType": "uint256"
        },
        {
          "name": "amount",
          "type": "uint256",
          "internalType": "uint256"
        },
        {
          "name": "timestamp",
          "type": "uint256",
          "internalType": "uint256"
        }
      ],
      "stateMutability": "view"
    },
    {
      "type": "function",
      "name": "getPlayerForRequest",
      "inputs": [
        {
          "name": "requestId",
          "type": "uint256",
          "internalType": "uint256"
        }
      ],
      "outputs": [
        {
          "name": "",
          "type": "address",
          "internalType": "address"
        }
      ],
      "stateMutability": "view"
    },
    {
      "type": "function",
      "name": "getPlayerStats",
      "inputs": [
        {
          "name": "player",
          "type": "address",
          "internalType": "address"
        }
      ],
      "outputs": [
        {
          "name": "winRate",
          "type": "uint256",
          "internalType": "uint256"
        },
        {
          "name": "averageBet",
          "type": "uint256",
          "internalType": "uint256"
        },
        {
          "name": "totalGamesWon",
          "type": "uint256",
          "internalType": "uint256"
        },
        {
          "name": "totalGamesLost",
          "type": "uint256",
          "internalType": "uint256"
        }
      ],
      "stateMutability": "view"
    },
    {
      "type": "function",
      "name": "getPreviousBets",
      "inputs": [
        {
          "name": "player",
          "type": "address",
          "internalType": "address"
        }
      ],
      "outputs": [
        {
          "name": "",
          "type": "tuple[]",
          "internalType": "struct BetHistory[]",
          "components": [
            {
              "name": "chosenNumber",
              "type": "uint256",
              "internalType": "uint256"
            },
            {
              "name": "rolledNumber",
              "type": "uint256",
              "internalType": "uint256"
            },
            {
              "name": "amount",
              "type": "uint256",
              "internalType": "uint256"
            },
            {
              "name": "timestamp",
              "type": "uint256",
              "internalType": "uint256"
            }
          ]
        }
      ],
      "stateMutability": "view"
    },
    {
      "type": "function",
      "name": "getUserData",
      "inputs": [
        {
          "name": "player",
          "type": "address",
          "internalType": "address"
        }
      ],
      "outputs": [
        {
          "name": "currentGame",
          "type": "tuple",
          "internalType": "struct GameState",
          "components": [
            {
              "name": "isActive",
              "type": "bool",
              "internalType": "bool"
            },
            {
              "name": "chosenNumber",
              "type": "uint256",
              "internalType": "uint256"
            },
            {
              "name": "result",
              "type": "uint256",
              "internalType": "uint256"
            },
            {
              "name": "amount",
              "type": "uint256",
              "internalType": "uint256"
            },
            {
              "name": "timestamp",
              "type": "uint256",
              "internalType": "uint256"
            },
            {
              "name": "payout",
              "type": "uint256",
              "internalType": "uint256"
            },
            {
              "name": "randomWord",
              "type": "uint256",
              "internalType": "uint256"
            },
            {
              "name": "status",
              "type": "uint8",
              "internalType": "enum GameStatus"
            }
          ]
        },
        {
          "name": "totalGames",
          "type": "uint256",
          "internalType": "uint256"
        },
        {
          "name": "totalBets",
          "type": "uint256",
          "internalType": "uint256"
        },
        {
          "name": "totalWinnings",
          "type": "uint256",
          "internalType": "uint256"
        },
        {
          "name": "totalLosses",
          "type": "uint256",
          "internalType": "uint256"
        },
        {
          "name": "lastPlayed",
          "type": "uint256",
          "internalType": "uint256"
        }
      ],
      "stateMutability": "view"
    },
    {
      "type": "function",
      "name": "hasPendingRequest",
      "inputs": [
        {
          "name": "player",
          "type": "address",
          "internalType": "address"
        }
      ],
      "outputs": [
        {
          "name": "",
          "type": "bool",
          "internalType": "bool"
        }
      ],
      "stateMutability": "view"
    },
    {
      "type": "function",
      "name": "isRequestActive",
      "inputs": [
        {
          "name": "requestId",
          "type": "uint256",
          "internalType": "uint256"
        }
      ],
      "outputs": [
        {
          "name": "",
          "type": "bool",
          "internalType": "bool"
        }
      ],
      "stateMutability": "view"
    },
    {
      "type": "function",
      "name": "myToken",
      "inputs": [],
      "outputs": [
        {
          "name": "",
          "type": "address",
          "internalType": "contract IMyToken"
        }
      ],
      "stateMutability": "view"
    },
    {
      "type": "function",
      "name": "owner",
      "inputs": [],
      "outputs": [
        {
          "name": "",
          "type": "address",
          "internalType": "address"
        }
      ],
      "stateMutability": "view"
    },
    {
      "type": "function",
      "name": "pause",
      "inputs": [],
      "outputs": [],
      "stateMutability": "nonpayable"
    },
    {
      "type": "function",
      "name": "paused",
      "inputs": [],
      "outputs": [
        {
          "name": "",
          "type": "bool",
          "internalType": "bool"
        }
      ],
      "stateMutability": "view"
    },
    {
      "type": "function",
      "name": "playDice",
      "inputs": [
        {
          "name": "chosenNumber",
          "type": "uint256",
          "internalType": "uint256"
        },
        {
          "name": "amount",
          "type": "uint256",
          "internalType": "uint256"
        }
      ],
      "outputs": [
        {
          "name": "requestId",
          "type": "uint256",
          "internalType": "uint256"
        }
      ],
      "stateMutability": "nonpayable"
    },
    {
      "type": "function",
      "name": "rawFulfillRandomWords",
      "inputs": [
        {
          "name": "requestId",
          "type": "uint256",
          "internalType": "uint256"
        },
        {
          "name": "randomWords",
          "type": "uint256[]",
          "internalType": "uint256[]"
        }
      ],
      "outputs": [],
      "stateMutability": "nonpayable"
    },
    {
      "type": "function",
      "name": "recoverStuckGame",
      "inputs": [
        {
          "name": "player",
          "type": "address",
          "internalType": "address"
        }
      ],
      "outputs": [],
      "stateMutability": "nonpayable"
    },
    {
      "type": "function",
      "name": "resolveGame",
      "inputs": [],
      "outputs": [],
      "stateMutability": "nonpayable"
    },
    {
      "type": "function",
      "name": "revokeTokenRole",
      "inputs": [
        {
          "name": "role",
          "type": "bytes32",
          "internalType": "bytes32"
        },
        {
          "name": "account",
          "type": "address",
          "internalType": "address"
        }
      ],
      "outputs": [],
      "stateMutability": "nonpayable"
    },
    {
      "type": "function",
      "name": "s_vrfCoordinator",
      "inputs": [],
      "outputs": [
        {
          "name": "",
          "type": "address",
          "internalType": "contract IVRFCoordinatorV2Plus"
        }
      ],
      "stateMutability": "view"
    },
    {
      "type": "function",
      "name": "setCallbackGasLimit",
      "inputs": [
        {
          "name": "_callbackGasLimit",
          "type": "uint32",
          "internalType": "uint32"
        }
      ],
      "outputs": [],
      "stateMutability": "nonpayable"
    },
    {
      "type": "function",
      "name": "setCoordinator",
      "inputs": [
        {
          "name": "_vrfCoordinator",
          "type": "address",
          "internalType": "address"
        }
      ],
      "outputs": [],
      "stateMutability": "nonpayable"
    },
    {
      "type": "function",
      "name": "setHistorySize",
      "inputs": [
        {
          "name": "newSize",
          "type": "uint256",
          "internalType": "uint256"
        }
      ],
      "outputs": [],
      "stateMutability": "nonpayable"
    },
    {
      "type": "function",
      "name": "transferOwnership",
      "inputs": [
        {
          "name": "to",
          "type": "address",
          "internalType": "address"
        }
      ],
      "outputs": [],
      "stateMutability": "nonpayable"
    },
    {
      "type": "function",
      "name": "unpause",
      "inputs": [],
      "outputs": [],
      "stateMutability": "nonpayable"
    },
    {
      "type": "event",
      "name": "CoordinatorSet",
      "inputs": [
        {
          "name": "vrfCoordinator",
          "type": "address",
          "indexed": false,
          "internalType": "address"
        }
      ],
      "anonymous": false
    },
    {
      "type": "event",
      "name": "OwnershipTransferRequested",
      "inputs": [
        {
          "name": "from",
          "type": "address",
          "indexed": true,
          "internalType": "address"
        },
        {
          "name": "to",
          "type": "address",
          "indexed": true,
          "internalType": "address"
        }
      ],
      "anonymous": false
    },
    {
      "type": "event",
      "name": "OwnershipTransferred",
      "inputs": [
        {
          "name": "from",
          "type": "address",
          "indexed": true,
          "internalType": "address"
        },
        {
          "name": "to",
          "type": "address",
          "indexed": true,
          "internalType": "address"
        }
      ],
      "anonymous": false
    },
    {
      "type": "event",
      "name": "Paused",
      "inputs": [
        {
          "name": "account",
          "type": "address",
          "indexed": false,
          "internalType": "address"
        }
      ],
      "anonymous": false
    },
    {
      "type": "event",
      "name": "Unpaused",
      "inputs": [
        {
          "name": "account",
          "type": "address",
          "indexed": false,
          "internalType": "address"
        }
      ],
      "anonymous": false
    },
    {
      "type": "error",
      "name": "EnforcedPause",
      "inputs": []
    },
    {
      "type": "error",
      "name": "ExpectedPause",
      "inputs": []
    },
    {
      "type": "error",
      "name": "GameError",
      "inputs": [
        {
          "name": "code",
          "type": "uint256",
          "internalType": "uint256"
        }
      ]
    },
    {
      "type": "error",
      "name": "InsufficientContractBalance",
      "inputs": [
        {
          "name": "required",
          "type": "uint256",
          "internalType": "uint256"
        },
        {
          "name": "available",
          "type": "uint256",
          "internalType": "uint256"
        }
      ]
    },
    {
      "type": "error",
      "name": "InsufficientUserBalance",
      "inputs": [
        {
          "name": "required",
          "type": "uint256",
          "internalType": "uint256"
        },
        {
          "name": "available",
          "type": "uint256",
          "internalType": "uint256"
        }
      ]
    },
    {
      "type": "error",
      "name": "InvalidBetParameters",
      "inputs": [
        {
          "name": "code",
          "type": "uint256",
          "internalType": "uint256"
        }
      ]
    },
    {
      "type": "error",
      "name": "OnlyCoordinatorCanFulfill",
      "inputs": [
        {
          "name": "have",
          "type": "address",
          "internalType": "address"
        },
        {
          "name": "want",
          "type": "address",
          "internalType": "address"
        }
      ]
    },
    {
      "type": "error",
      "name": "OnlyOwnerOrCoordinator",
      "inputs": [
        {
          "name": "have",
          "type": "address",
          "internalType": "address"
        },
        {
          "name": "owner",
          "type": "address",
          "internalType": "address"
        },
        {
          "name": "coordinator",
          "type": "address",
          "internalType": "address"
        }
      ]
    },
    {
      "type": "error",
      "name": "PayoutCalculationError",
      "inputs": [
        {
          "name": "message",
          "type": "string",
          "internalType": "string"
        }
      ]
    },
    {
      "type": "error",
      "name": "ReentrancyGuardReentrantCall",
      "inputs": []
    },
    {
      "type": "error",
      "name": "RoleError",
      "inputs": [
        {
          "name": "code",
          "type": "uint256",
          "internalType": "uint256"
        }
      ]
    },
    {
      "type": "error",
      "name": "TransferFailed",
      "inputs": [
        {
          "name": "code",
          "type": "uint256",
          "internalType": "uint256"
        }
      ]
    },
    {
      "type": "error",
      "name": "VRFError",
      "inputs": [
        {
          "name": "code",
          "type": "uint256",
          "internalType": "uint256"
        }
      ]
    },
    {
      "type": "error",
      "name": "ZeroAddress",
      "inputs": []
    }
  ],
  "bytecode": {
    "object": "0x61012060405234801561001157600080fd5b506040516128ec3803806128ec833981016040819052610030916102d2565b6000805460ff1916815560018055859033908190816100965760405162461bcd60e51b815260206004820152601860248201527f43616e6e6f7420736574206f776e657220746f207a65726f000000000000000060448201526064015b60405180910390fd5b600280546001600160a01b0319166001600160a01b03848116919091179091558116156100c6576100c6816101f8565b5050506001600160a01b0381166100f05760405163d92e233d60e01b815260040160405180910390fd5b600480546001600160a01b0319166001600160a01b03928316179055871661012e57604051636cab86db60e01b81526001600482015260240161008d565b6001600160a01b03851661015857604051636cab86db60e01b81526002600482015260240161008d565b8263ffffffff1660000361018257604051636cab86db60e01b81526003600482015260240161008d565b8063ffffffff166000036101ab57604051636cab86db60e01b815260048181015260240161008d565b60809590955260a0929092526004805463ffffffff60a01b1916600160a01b63ffffffff9384160217905561ffff90911660c05290911660e052506001600160a01b031661010052610353565b336001600160a01b038216036102505760405162461bcd60e51b815260206004820152601760248201527f43616e6e6f74207472616e7366657220746f2073656c66000000000000000000604482015260640161008d565b600380546001600160a01b0319166001600160a01b03838116918217909255600254604051919216907fed8889f560326eb138920d842192f0eb3dd22b4f139c87a2c57538e05bae127890600090a350565b80516001600160a01b03811681146102b957600080fd5b919050565b805163ffffffff811681146102b957600080fd5b600080600080600080600060e0888a0312156102ed57600080fd5b6102f6886102a2565b96506020880151955061030b604089016102a2565b945060608801519350610320608089016102be565b925060a088015161ffff8116811461033757600080fd5b915061034560c089016102be565b905092959891949750929550565b60805160a05160c05160e0516101005161250f6103dd60003960008181610486015281816106670152818161071f015281816107fa015281816108a9015281816111cc015281816115e201528181611689015281816118920152818161199c0152611a5a015260006109be015260006109850152600061093501526000610958015261250f6000f3fe608060405234801561001057600080fd5b50600436106101e45760003560e01c806362cf48f91161010f57806393e955bd116100a2578063b8fcf93711610071578063b8fcf93714610481578063d5391393146104a8578063f2fde38b146104cf578063ffc9896b146104e257600080fd5b806393e955bd146104355780639eccacf614610448578063a4eb718c1461045b578063b52a08551461046e57600080fd5b80637cd2d47c116100de5780637cd2d47c146104015780638456cb59146104095780638da5cb5b146104115780638ea981171461042257600080fd5b806362cf48f9146103b957806363df7a14146103e95780636f9fb98a146103f157806379ba5097146103f957600080fd5b8063282c51f3116101875780634fd66eae116101565780634fd66eae1461034457806354e4437e146103775780635c975abb1461039b5780635d424b85146103a657600080fd5b8063282c51f3146102e257806329febc73146103095780633f4ba83a1461031c578063447b2a061461032457600080fd5b806304243151116101c35780630424315114610266578063086bb182146102a75780630c99375d146102bc5780631fe543e3146102cf57600080fd5b8062d6b9ba146101e95780630176cf5e146102125780630359a8a314610233575b600080fd5b6101fc6101f7366004612069565b610507565b6040516102099190612084565b60405180910390f35b6102256102203660046120ed565b6105a9565b604051908152602001610209565b61025661024136600461210f565b60009081526007602052604090205460ff1690565b6040519015158152602001610209565b61028f61027436600461210f565b6000908152600660205260409020546001600160a01b031690565b6040516001600160a01b039091168152602001610209565b6102ba6102b536600461210f565b610b9e565b005b6102566102ca366004612069565b610ca3565b6102ba6102dd366004612128565b610cda565b6102257f3c11d16cbaffd01df69ce1c404f6340ee057498f5f00246190ea54220576a84881565b6102ba610317366004612069565b610d2b565b6102ba610e22565b610337610332366004612069565b610e34565b6040516102099190612235565b610357610352366004612069565b610f48565b604080519485526020850193909352918301526060820152608001610209565b61038a610385366004612069565b611022565b604051610209959493929190612244565b60005460ff16610256565b6102566103b4366004612069565b61111d565b6103cc6103c7366004612069565b61114d565b604080519384529115156020840152151590820152606001610209565b610225600a81565b6102256111b4565b6102ba611244565b6102ba6112f2565b6102ba611761565b6002546001600160a01b031661028f565b6102ba610430366004612069565b611771565b6102ba610443366004612276565b611864565b60045461028f906001600160a01b031681565b6102ba6104693660046122a2565b6118f2565b6102ba61047c366004612069565b611920565b61028f7f000000000000000000000000000000000000000000000000000000000000000081565b6102257f9f2df0fed2c77648de5860a4cc508cd0818c85b8b8a1ab4ceeef8d981c8956a681565b6102ba6104dd366004612069565b611ad1565b6104f56104f0366004612069565b611ae5565b604051610209969594939291906122c8565b6001600160a01b0381166000908152600560209081526040808320600a8101805483518186028101860190945280845260609592949192909184015b8282101561059d578382906000526020600020906004020160405180608001604052908160008201548152602001600182015481526020016002820154815260200160038201548152505081526020019060010190610543565b50505050915050919050565b60006105b3611beb565b6105bb611c15565b336000908152600560205260408120908390036105f357604051636cab86db60e01b8152600560048201526024015b60405180910390fd5b805460ff16156106195760405163d6d1036b60e01b8152600160048201526024016105ea565b60018410806106285750600684115b1561064957604051636cab86db60e01b8152600660048201526024016105ea565b604051636eb1769f60e11b81523360048201523060248201526000907f00000000000000000000000000000000000000000000000000000000000000006001600160a01b03169063dd62ed3e90604401602060405180830381865afa1580156106b6573d6000803e3d6000fd5b505050506040513d601f19601f820116820180604052508101906106da9190612304565b905083811015610707576040516302fa826960e51b815260048101859052602481018290526044016105ea565b6040516370a0823160e01b81523360048201526000907f00000000000000000000000000000000000000000000000000000000000000006001600160a01b0316906370a0823190602401602060405180830381865afa15801561076e573d6000803e3d6000fd5b505050506040513d601f19601f820116820180604052508101906107929190612304565b9050848110156107bf576040516302fa826960e51b815260048101869052602481018290526044016105ea565b604051632474521560e21b81527f3c11d16cbaffd01df69ce1c404f6340ee057498f5f00246190ea54220576a84860048201523060248201527f00000000000000000000000000000000000000000000000000000000000000006001600160a01b0316906391d1485490604401602060405180830381865afa158015610849573d6000803e3d6000fd5b505050506040513d601f19601f8201168201806040525081019061086d919061231d565b61088d5760405163d64796dd60e01b8152600160048201526024016105ea565b604051632770a7eb60e21b8152336004820152602481018690527f00000000000000000000000000000000000000000000000000000000000000006001600160a01b031690639dc29fac90604401600060405180830381600087803b1580156108f557600080fd5b505af1925050508015610906575060015b6109265760405163c39ba1a960e01b8152600160048201526024016105ea565b6004546040805160c0810182527f000000000000000000000000000000000000000000000000000000000000000081527f000000000000000000000000000000000000000000000000000000000000000060208083019190915261ffff7f0000000000000000000000000000000000000000000000000000000000000000168284015263ffffffff600160a01b8504811660608401527f00000000000000000000000000000000000000000000000000000000000000001660808301528251908101909252600082526001600160a01b0390921691639b1c385e9160a0820190610a0f90611c39565b8152506040518263ffffffff1660e01b8152600401610a2e919061233f565b6020604051808303816000875af1925050508015610a69575060408051601f3d908101601f19168201909252610a6691810190612304565b60015b610a895760405163588860ed60e11b8152600160048201526024016105ea565b600081815260066020818152604080842080546001600160a01b031916331790556007808352818520805460ff1990811660019081179092558351610100810185528281529485018e9052928401869052606084018c9052426080850181905260a0850187905260c0850187905260e09094018190528954831681178a558981018d905560028a0186905560038a018c905560048a019390935560058901859055928801849055918701805483169091179055600886018390556009860180549091169055600c850180549296508792909190610b679084906123f1565b9091555050600f83018054906000610b7e83612404565b9190505550428360100181905550505050610b9860018055565b92915050565b60008111610bee5760405162461bcd60e51b815260206004820152601d60248201527f486973746f72792073697a65206d75737420626520706f73697469766500000060448201526064016105ea565b6064811115610c385760405162461bcd60e51b8152602060048201526016602482015275486973746f72792073697a6520746f6f206c6172676560501b60448201526064016105ea565b336000908152600560205260409020600b81018290555b600a810154821015610c9f5780600a01805480610c6e57610c6e61241d565b6000828152602081206004600019909301928302018181556001810182905560028101829055600301559055610c4f565b5050565b6001600160a01b0381166000908152600560205260408120600881015415801590610cd35750600981015460ff16155b9392505050565b6004546001600160a01b03163314610d1b576004805460405163073e64fd60e21b815233928101929092526001600160a01b031660248201526044016105ea565b610d26838383611caa565b505050565b610d33611e47565b6001600160a01b0381166000908152600560205260409020805460ff16610d6c5760405162461bcd60e51b81526004016105ea90612433565b6004810154610d7e90610e10906123f1565b4211610dc15760405162461bcd60e51b815260206004820152601260248201527111d85b59481b9bdd081d1a5b5959081bdd5d60721b60448201526064016105ea565b600881015415610e0257600881018054600090815260066020908152604080832080546001600160a01b0319169055925482526007905220805460ff191690555b805460ff1990811682556009820180549091169055600060089091015550565b610e2a611e47565b610e32611e9a565b565b610e3c611ff6565b6001600160a01b0382166000908152600560205260409020805460ff16610eb85760405180610100016040528060001515815260200160008152602001600081526020016000815260200160008152602001600081526020016000815260200160006004811115610eaf57610eaf6121a9565b90529392505050565b6040805161010081018252825460ff9081161515825260018401546020830152600284015492820192909252600383015460608201526004808401546080830152600584015460a0830152600684015460c083015260078401549192849260e0850192911690811115610f2d57610f2d6121a9565b6004811115610f3e57610f3e6121a9565b9052509392505050565b6001600160a01b0381166000908152600560205260408120600f810154829182918291908203610f865760008060008094509450945094505061101b565b600d81015460009015610fa757600682600d0154610fa49190612471565b90505b60008183600f0154610fb99190612485565b9050600083600f015411610fce576000610fe9565b600f830154610fdf83612710612498565b610fe99190612471565b9650600083600f015411610ffe576000611012565b82600f015483600c01546110129190612471565b95509093509150505b9193509193565b6001600160a01b0381166000908152600560208181526040808420815161010081018352815460ff908116151582526001830154948201949094526002820154928101929092526003810154606083015260048082015460808401529381015460a0830152600681015460c08301526007810154859485948594859485949193909260e085019216908111156110ba576110ba6121a9565b60048111156110cb576110cb6121a9565b90525080519091506110ef5760008060008060009550955095509550955050611114565b80600001518160e0015182602001518360600151846080015195509550955095509550505b91939590929450565b6001600160a01b0381166000908152600560205260408120805460ff16158015610cd35750600801541592915050565b6001600160a01b03811660009081526005602052604081206008810154829182918203611185576000806000935093509350506111ad565b600881015460099091015460008281526007602052604090205491945060ff90811693501690505b9193909250565b6040516370a0823160e01b81523060048201526000907f00000000000000000000000000000000000000000000000000000000000000006001600160a01b0316906370a0823190602401602060405180830381865afa15801561121b573d6000803e3d6000fd5b505050506040513d601f19601f8201168201806040525081019061123f9190612304565b905090565b6003546001600160a01b031633146112975760405162461bcd60e51b815260206004820152601660248201527526bab9ba10313290383937b837b9b2b21037bbb732b960511b60448201526064016105ea565b600280546001600160a01b0319808216339081179093556003805490911690556040516001600160a01b03909116919082907f8be0079c531659141344cd1fd0a4f28419497f9722a3daafe3b4186f6b6457e090600090a350565b6112fa611beb565b336000908152600560205260409020805460ff1661132a5760405162461bcd60e51b81526004016105ea90612433565b600981015460ff1661137e5760405162461bcd60e51b815260206004820152601760248201527f52616e646f6d206e756d626572206e6f7420726561647900000000000000000060448201526064016105ea565b600681810154600091611390916124af565b61139b9060016123f1565b905081600b01546000036113b157600a600b8301555b600b820154600a8301541061149b5760005b600a8301546113d490600190612485565b81101561145a57600a83016113ea8260016123f1565b815481106113fa576113fa6124c3565b906000526020600020906004020183600a01828154811061141d5761141d6124c3565b60009182526020909120825460049092020190815560018083015481830155600280840154908301556003928301549290910191909155016113c3565b5081600a0180548061146e5761146e61241d565b60008281526020812060046000199093019283020181815560018101829055600281018290556003015590555b6040805160808101825260018085018054835260208084018681526003808901549686019687524260608701908152600a8a01805480880182556000918252948120975160049095029097019384559151948301949094559451600282015593519390910192909255905482900361170b5761151a6006600019612471565b600384015411156115655760405163193a897b60e11b815260206004820152601460248201527342657420616d6f756e7420746f6f206c6172676560601b60448201526064016105ea565b6003830154611575906006612498565b90508083600d01600082825461158b91906123f1565b909155505060078301805460ff19166002179055604051632474521560e21b81527f9f2df0fed2c77648de5860a4cc508cd0818c85b8b8a1ab4ceeef8d981c8956a660048201523060248201526001600160a01b037f000000000000000000000000000000000000000000000000000000000000000016906391d1485490604401602060405180830381865afa158015611629573d6000803e3d6000fd5b505050506040513d601f19601f8201168201806040525081019061164d919061231d565b61166d5760405163d64796dd60e01b8152600260048201526024016105ea565b6040516340c10f1960e01b8152336004820152602481018290527f00000000000000000000000000000000000000000000000000000000000000006001600160a01b0316906340c10f1990604401600060405180830381600087803b1580156116d557600080fd5b505af19250505080156116e6575060015b6117065760405163c39ba1a960e01b8152600260048201526024016105ea565b611739565b6003830154600e840180546000906117249084906123f1565b909155505060078301805460ff191660031790555b5050805460ff19908116825560098201805490911690556000600890910155610e3260018055565b611769611e47565b610e32611eec565b6002546001600160a01b0316331480159061179757506004546001600160a01b03163314155b156117e957336117af6002546001600160a01b031690565b6004805460405163061db9c160e01b81526001600160a01b03948516928101929092529183166024820152911660448201526064016105ea565b6001600160a01b0381166118105760405163d92e233d60e01b815260040160405180910390fd5b600480546001600160a01b0319166001600160a01b0383169081179091556040519081527fd1a6a14209a385a964d036e404cb5cfb71f4000cdb03c9366292430787261be69060200160405180910390a150565b61186c611e47565b60405163d547741f60e01b8152600481018390526001600160a01b0382811660248301527f0000000000000000000000000000000000000000000000000000000000000000169063d547741f90604401600060405180830381600087803b1580156118d657600080fd5b505af11580156118ea573d6000803e3d6000fd5b505050505050565b6118fa611e47565b6004805463ffffffff909216600160a01b0263ffffffff60a01b19909216919091179055565b611928611e47565b6001600160a01b0381166000908152600560205260409020805460ff166119615760405162461bcd60e51b81526004016105ea90612433565b604051632474521560e21b81527f9f2df0fed2c77648de5860a4cc508cd0818c85b8b8a1ab4ceeef8d981c8956a660048201523060248201527f00000000000000000000000000000000000000000000000000000000000000006001600160a01b0316906391d1485490604401602060405180830381865afa1580156119eb573d6000803e3d6000fd5b505050506040513d601f19601f82011682018060405250810190611a0f919061231d565b611a2e5760405163d64796dd60e01b81526004818101526024016105ea565b60038101546040516340c10f1960e01b81526001600160a01b03848116600483015260248201929092527f0000000000000000000000000000000000000000000000000000000000000000909116906340c10f1990604401600060405180830381600087803b158015611aa057600080fd5b505af1925050508015611ab1575060015b610e025760405163c39ba1a960e01b8152600360048201526024016105ea565b611ad9611e47565b611ae281611f29565b50565b611aed611ff6565b60008060008060008060056000896001600160a01b03166001600160a01b0316815260200190815260200160002090508060000181600f015482600c015483600d015484600e0154856010015485604051806101000160405290816000820160009054906101000a900460ff161515151581526020016001820154815260200160028201548152602001600382015481526020016004820154815260200160058201548152602001600682015481526020016007820160009054906101000a900460ff166004811115611bc257611bc26121a9565b6004811115611bd357611bd36121a9565b9052509e949d50929b50909950975095509350505050565b600260015403611c0e57604051633ee5aeb560e01b815260040160405180910390fd5b6002600155565b60005460ff1615610e325760405163d93c066560e01b815260040160405180910390fd5b60607f92fd13387c7fe7befbc38d303d6468778fb9731bc4583f17d92989c6fcfdeaaa82604051602401611c7291511515815260200190565b60408051601f198184030181529190526020810180516001600160e01b03166001600160e01b03199093169290921790915292915050565b6000838152600660205260409020546001600160a01b031680611ce35760405163d6d1036b60e01b8152600260048201526024016105ea565b6001600160a01b0381166000908152600560205260409020805460ff16611d3e5760405162461bcd60e51b815260206004820152600f60248201526e47616d65206e6f742061637469766560881b60448201526064016105ea565b84816008015414611d875760405162461bcd60e51b81526020600482015260136024820152720a4cae2eacae6e840928840dad2e6dac2e8c6d606b1b60448201526064016105ea565b60008581526007602052604090205460ff16611ddd5760405162461bcd60e51b815260206004820152601560248201527452657175657374204944206e6f742061637469766560581b60448201526064016105ea565b83836000818110611df057611df06124c3565b602090810292909201356006808501919091556009909301805460ff19908116600117909155600097885292825250604080872080546001600160a01b031916905560079091529094208054909416909355505050565b6002546001600160a01b03163314610e325760405162461bcd60e51b815260206004820152601660248201527527b7363c9031b0b63630b1363290313c9037bbb732b960511b60448201526064016105ea565b611ea2611fd3565b6000805460ff191690557f5db9ee0a495bf2e6ff9c91a7834c1ba4fdd244a5e8aa4e537bd38aeae4b073aa335b6040516001600160a01b03909116815260200160405180910390a1565b611ef4611c15565b6000805460ff191660011790557f62e78cea01bee320cd4e420270b5ea74000d11b0c9f74754ebdbfc544b05a258611ecf3390565b336001600160a01b03821603611f815760405162461bcd60e51b815260206004820152601760248201527f43616e6e6f74207472616e7366657220746f2073656c6600000000000000000060448201526064016105ea565b600380546001600160a01b0319166001600160a01b03838116918217909255600254604051919216907fed8889f560326eb138920d842192f0eb3dd22b4f139c87a2c57538e05bae127890600090a350565b60005460ff16610e3257604051638dfc202b60e01b815260040160405180910390fd5b60405180610100016040528060001515815260200160008152602001600081526020016000815260200160008152602001600081526020016000815260200160006004811115612048576120486121a9565b905290565b80356001600160a01b038116811461206457600080fd5b919050565b60006020828403121561207b57600080fd5b610cd38261204d565b602080825282518282018190526000918401906040840190835b818110156120e2578351805184526020810151602085015260408101516040850152606081015160608501525060808301925060208401935060018101905061209e565b509095945050505050565b6000806040838503121561210057600080fd5b50508035926020909101359150565b60006020828403121561212157600080fd5b5035919050565b60008060006040848603121561213d57600080fd5b83359250602084013567ffffffffffffffff81111561215b57600080fd5b8401601f8101861361216c57600080fd5b803567ffffffffffffffff81111561218357600080fd5b8660208260051b840101111561219857600080fd5b939660209190910195509293505050565b634e487b7160e01b600052602160045260246000fd5b600581106121dd57634e487b7160e01b600052602160045260246000fd5b9052565b8051151582526020810151602083015260408101516040830152606081015160608301526080810151608083015260a081015160a083015260c081015160c083015260e0810151610d2660e08401826121bf565b6101008101610b9882846121e1565b851515815260a0810161225a60208301876121bf565b8460408301528360608301528260808301529695505050505050565b6000806040838503121561228957600080fd5b823591506122996020840161204d565b90509250929050565b6000602082840312156122b457600080fd5b813563ffffffff81168114610cd357600080fd5b6101a081016122d782896121e1565b61010082019690965261012081019490945261014084019290925261016083015261018090910152919050565b60006020828403121561231657600080fd5b5051919050565b60006020828403121561232f57600080fd5b81518015158114610cd357600080fd5b60208152815160208201526020820151604082015261ffff604083015116606082015263ffffffff606083015116608082015263ffffffff60808301511660a0820152600060a083015160c08084015280518060e085015260005b818110156123b857602081840181015161010087840101520161239a565b5060006101008286010152610100601f19601f8301168501019250505092915050565b634e487b7160e01b600052601160045260246000fd5b80820180821115610b9857610b986123db565b600060018201612416576124166123db565b5060010190565b634e487b7160e01b600052603160045260246000fd5b6020808252600e908201526d4e6f206163746976652067616d6560901b604082015260600190565b634e487b7160e01b600052601260045260246000fd5b6000826124805761248061245b565b500490565b81810381811115610b9857610b986123db565b8082028115828204841417610b9857610b986123db565b6000826124be576124be61245b565b500690565b634e487b7160e01b600052603260045260246000fdfea26469706673582212201f01d8f0261d8aded1eb3b2cd93e3047108019d6c965dd22a0dfc446e2be692864736f6c634300081a0033",
    "linkReferences": {}
  },
  "methodIdentifiers": {
    "BURNER_ROLE()": "282c51f3",
    "DEFAULT_HISTORY_SIZE()": "63df7a14",
    "MINTER_ROLE()": "d5391393",
    "acceptOwnership()": "79ba5097",
    "canStartNewGame(address)": "5d424b85",
    "forceStopGame(address)": "b52a0855",
    "getContractBalance()": "6f9fb98a",
    "getCurrentGame(address)": "447b2a06",
    "getCurrentRequestDetails(address)": "62cf48f9",
    "getGameStatus(address)": "54e4437e",
    "getPlayerForRequest(uint256)": "04243151",
    "getPlayerStats(address)": "4fd66eae",
    "getPreviousBets(address)": "00d6b9ba",
    "getUserData(address)": "ffc9896b",
    "hasPendingRequest(address)": "0c99375d",
    "isRequestActive(uint256)": "0359a8a3",
    "myToken()": "b8fcf937",
    "owner()": "8da5cb5b",
    "pause()": "8456cb59",
    "paused()": "5c975abb",
    "playDice(uint256,uint256)": "0176cf5e",
    "rawFulfillRandomWords(uint256,uint256[])": "1fe543e3",
    "recoverStuckGame(address)": "29febc73",
    "resolveGame()": "7cd2d47c",
    "revokeTokenRole(bytes32,address)": "93e955bd",
    "s_vrfCoordinator()": "9eccacf6",
    "setCallbackGasLimit(uint32)": "a4eb718c",
    "setCoordinator(address)": "8ea98117",
    "setHistorySize(uint256)": "086bb182",
    "transferOwnership(address)": "f2fde38b",
    "unpause()": "3f4ba83a"
  },
  "id": 32
}