{"abi":[{"type":"constructor","inputs":[{"name":"_myTokenAddress","type":"address","internalType":"address"},{"name":"subscriptionId","type":"uint256","internalType":"uint256"},{"name":"vrfCoordinator","type":"address","internalType":"address"},{"name":"keyHash","type":"bytes32","internalType":"bytes32"},{"name":"_callbackGasLimit","type":"uint32","internalType":"uint32"},{"name":"_requestConfirmations","type":"uint16","internalType":"uint16"},{"name":"_numWords","type":"uint32","internalType":"uint32"}],"stateMutability":"nonpayable"},{"type":"function","name":"BURNER_ROLE","inputs":[],"outputs":[{"name":"","type":"bytes32","internalType":"bytes32"}],"stateMutability":"view"},{"type":"function","name":"MINTER_ROLE","inputs":[],"outputs":[{"name":"","type":"bytes32","internalType":"bytes32"}],"stateMutability":"view"},{"type":"function","name":"acceptOwnership","inputs":[],"outputs":[],"stateMutability":"nonpayable"},{"type":"function","name":"currentGame","inputs":[],"outputs":[{"name":"isActive","type":"bool","internalType":"bool"},{"name":"randomFulfilled","type":"bool","internalType":"bool"},{"name":"chosenNumber","type":"uint256","internalType":"uint256"},{"name":"result","type":"uint256","internalType":"uint256"},{"name":"player","type":"address","internalType":"address"},{"name":"amount","type":"uint256","internalType":"uint256"},{"name":"timestamp","type":"uint256","internalType":"uint256"},{"name":"payout","type":"uint256","internalType":"uint256"},{"name":"requestId","type":"uint256","internalType":"uint256"},{"name":"randomWord","type":"uint256","internalType":"uint256"}],"stateMutability":"view"},{"type":"function","name":"forceStopGame","inputs":[],"outputs":[],"stateMutability":"nonpayable"},{"type":"function","name":"getCallbackGasLimit","inputs":[],"outputs":[{"name":"","type":"uint32","internalType":"uint32"}],"stateMutability":"view"},{"type":"function","name":"getContractBalance","inputs":[],"outputs":[{"name":"","type":"uint256","internalType":"uint256"}],"stateMutability":"view"},{"type":"function","name":"getGameStats","inputs":[],"outputs":[{"name":"totalGames","type":"uint256","internalType":"uint256"},{"name":"totalPaid","type":"uint256","internalType":"uint256"},{"name":"activeGame","type":"tuple","internalType":"struct GameState","components":[{"name":"isActive","type":"bool","internalType":"bool"},{"name":"randomFulfilled","type":"bool","internalType":"bool"},{"name":"chosenNumber","type":"uint256","internalType":"uint256"},{"name":"result","type":"uint256","internalType":"uint256"},{"name":"player","type":"address","internalType":"address"},{"name":"amount","type":"uint256","internalType":"uint256"},{"name":"timestamp","type":"uint256","internalType":"uint256"},{"name":"payout","type":"uint256","internalType":"uint256"},{"name":"requestId","type":"uint256","internalType":"uint256"},{"name":"randomWord","type":"uint256","internalType":"uint256"}]}],"stateMutability":"view"},{"type":"function","name":"getPlayerLastNRolls","inputs":[{"name":"player","type":"address","internalType":"address"},{"name":"n","type":"uint256","internalType":"uint256"}],"outputs":[{"name":"","type":"uint256[]","internalType":"uint256[]"}],"stateMutability":"view"},{"type":"function","name":"getUserStats","inputs":[{"name":"player","type":"address","internalType":"address"}],"outputs":[{"name":"totalGames","type":"uint256","internalType":"uint256"},{"name":"totalBets","type":"uint256","internalType":"uint256"},{"name":"totalWinnings","type":"uint256","internalType":"uint256"},{"name":"totalLosses","type":"uint256","internalType":"uint256"},{"name":"lastPlayed","type":"uint256","internalType":"uint256"},{"name":"personalRollHistory","type":"uint256[]","internalType":"uint256[]"}],"stateMutability":"view"},{"type":"function","name":"myToken","inputs":[],"outputs":[{"name":"","type":"address","internalType":"contract IMyToken"}],"stateMutability":"view"},{"type":"function","name":"owner","inputs":[],"outputs":[{"name":"","type":"address","internalType":"address"}],"stateMutability":"view"},{"type":"function","name":"pause","inputs":[],"outputs":[],"stateMutability":"nonpayable"},{"type":"function","name":"paused","inputs":[],"outputs":[{"name":"","type":"bool","internalType":"bool"}],"stateMutability":"view"},{"type":"function","name":"playDice","inputs":[{"name":"chosenNumber","type":"uint256","internalType":"uint256"},{"name":"amount","type":"uint256","internalType":"uint256"}],"outputs":[{"name":"requestId","type":"uint256","internalType":"uint256"}],"stateMutability":"nonpayable"},{"type":"function","name":"rawFulfillRandomWords","inputs":[{"name":"requestId","type":"uint256","internalType":"uint256"},{"name":"randomWords","type":"uint256[]","internalType":"uint256[]"}],"outputs":[],"stateMutability":"nonpayable"},{"type":"function","name":"recoverStuckGame","inputs":[],"outputs":[],"stateMutability":"nonpayable"},{"type":"function","name":"resolveGame","inputs":[],"outputs":[],"stateMutability":"nonpayable"},{"type":"function","name":"revokeTokenRole","inputs":[{"name":"role","type":"bytes32","internalType":"bytes32"},{"name":"account","type":"address","internalType":"address"}],"outputs":[],"stateMutability":"nonpayable"},{"type":"function","name":"s_vrfCoordinator","inputs":[],"outputs":[{"name":"","type":"address","internalType":"contract IVRFCoordinatorV2Plus"}],"stateMutability":"view"},{"type":"function","name":"setCoordinator","inputs":[{"name":"_vrfCoordinator","type":"address","internalType":"address"}],"outputs":[],"stateMutability":"nonpayable"},{"type":"function","name":"totalGamesPlayed","inputs":[],"outputs":[{"name":"","type":"uint256","internalType":"uint256"}],"stateMutability":"view"},{"type":"function","name":"totalPayoutAmount","inputs":[],"outputs":[{"name":"","type":"uint256","internalType":"uint256"}],"stateMutability":"view"},{"type":"function","name":"transferOwnership","inputs":[{"name":"to","type":"address","internalType":"address"}],"outputs":[],"stateMutability":"nonpayable"},{"type":"function","name":"unpause","inputs":[],"outputs":[],"stateMutability":"nonpayable"},{"type":"function","name":"updateCallbackGasLimit","inputs":[{"name":"newCallbackGasLimit","type":"uint32","internalType":"uint32"}],"outputs":[],"stateMutability":"nonpayable"},{"type":"event","name":"CallbackGasLimitUpdated","inputs":[{"name":"oldLimit","type":"uint32","indexed":false,"internalType":"uint32"},{"name":"newLimit","type":"uint32","indexed":false,"internalType":"uint32"}],"anonymous":false},{"type":"event","name":"CoordinatorSet","inputs":[{"name":"vrfCoordinator","type":"address","indexed":false,"internalType":"address"}],"anonymous":false},{"type":"event","name":"Debug","inputs":[{"name":"message","type":"string","indexed":false,"internalType":"string"},{"name":"user","type":"address","indexed":false,"internalType":"address"},{"name":"value","type":"uint256","indexed":false,"internalType":"uint256"}],"anonymous":false},{"type":"event","name":"GameCompleted","inputs":[{"name":"player","type":"address","indexed":true,"internalType":"address"},{"name":"chosenNumber","type":"uint256","indexed":false,"internalType":"uint256"},{"name":"result","type":"uint256","indexed":false,"internalType":"uint256"},{"name":"betAmount","type":"uint256","indexed":false,"internalType":"uint256"},{"name":"payout","type":"uint256","indexed":false,"internalType":"uint256"},{"name":"timestamp","type":"uint256","indexed":false,"internalType":"uint256"}],"anonymous":false},{"type":"event","name":"GameStarted","inputs":[{"name":"player","type":"address","indexed":true,"internalType":"address"},{"name":"chosenNumber","type":"uint256","indexed":false,"internalType":"uint256"},{"name":"amount","type":"uint256","indexed":false,"internalType":"uint256"},{"name":"timestamp","type":"uint256","indexed":false,"internalType":"uint256"}],"anonymous":false},{"type":"event","name":"OwnershipTransferRequested","inputs":[{"name":"from","type":"address","indexed":true,"internalType":"address"},{"name":"to","type":"address","indexed":true,"internalType":"address"}],"anonymous":false},{"type":"event","name":"OwnershipTransferred","inputs":[{"name":"from","type":"address","indexed":true,"internalType":"address"},{"name":"to","type":"address","indexed":true,"internalType":"address"}],"anonymous":false},{"type":"event","name":"Paused","inputs":[{"name":"account","type":"address","indexed":false,"internalType":"address"}],"anonymous":false},{"type":"event","name":"RandomWordsFulfilled","inputs":[{"name":"requestId","type":"uint256","indexed":false,"internalType":"uint256"}],"anonymous":false},{"type":"event","name":"Unpaused","inputs":[{"name":"account","type":"address","indexed":false,"internalType":"address"}],"anonymous":false},{"type":"error","name":"EnforcedPause","inputs":[]},{"type":"error","name":"ExpectedPause","inputs":[]},{"type":"error","name":"GameError","inputs":[{"name":"code","type":"uint256","internalType":"uint256"}]},{"type":"error","name":"InsufficientContractBalance","inputs":[{"name":"required","type":"uint256","internalType":"uint256"},{"name":"available","type":"uint256","internalType":"uint256"}]},{"type":"error","name":"InsufficientUserBalance","inputs":[{"name":"required","type":"uint256","internalType":"uint256"},{"name":"available","type":"uint256","internalType":"uint256"}]},{"type":"error","name":"InvalidBetParameters","inputs":[{"name":"code","type":"uint256","internalType":"uint256"}]},{"type":"error","name":"OnlyCoordinatorCanFulfill","inputs":[{"name":"have","type":"address","internalType":"address"},{"name":"want","type":"address","internalType":"address"}]},{"type":"error","name":"OnlyOwnerOrCoordinator","inputs":[{"name":"have","type":"address","internalType":"address"},{"name":"owner","type":"address","internalType":"address"},{"name":"coordinator","type":"address","internalType":"address"}]},{"type":"error","name":"PayoutCalculationError","inputs":[{"name":"message","type":"string","internalType":"string"}]},{"type":"error","name":"ReentrancyGuardReentrantCall","inputs":[]},{"type":"error","name":"RoleError","inputs":[{"name":"code","type":"uint256","internalType":"uint256"}]},{"type":"error","name":"TransferFailed","inputs":[{"name":"code","type":"uint256","internalType":"uint256"}]},{"type":"error","name":"VRFError","inputs":[{"name":"code","type":"uint256","internalType":"uint256"}]},{"type":"error","name":"ZeroAddress","inputs":[]}],"bytecode":{"object":"0x61012060405234801561001157600080fd5b5060405161285e38038061285e833981016040819052610030916102d2565b6000805460ff1916815560018055859033908190816100965760405162461bcd60e51b815260206004820152601860248201527f43616e6e6f7420736574206f776e657220746f207a65726f000000000000000060448201526064015b60405180910390fd5b600280546001600160a01b0319166001600160a01b03848116919091179091558116156100c6576100c6816101f8565b5050506001600160a01b0381166100f05760405163d92e233d60e01b815260040160405180910390fd5b600480546001600160a01b0319166001600160a01b03928316179055871661012e57604051636cab86db60e01b81526001600482015260240161008d565b6001600160a01b03851661015857604051636cab86db60e01b81526002600482015260240161008d565b8263ffffffff1660000361018257604051636cab86db60e01b81526003600482015260240161008d565b8063ffffffff166000036101ab57604051636cab86db60e01b815260048181015260240161008d565b60809590955260a0929092526004805463ffffffff60a01b1916600160a01b63ffffffff9384160217905561ffff90911660c05290911660e052506001600160a01b031661010052610353565b336001600160a01b038216036102505760405162461bcd60e51b815260206004820152601760248201527f43616e6e6f74207472616e7366657220746f2073656c66000000000000000000604482015260640161008d565b600380546001600160a01b0319166001600160a01b03838116918217909255600254604051919216907fed8889f560326eb138920d842192f0eb3dd22b4f139c87a2c57538e05bae127890600090a350565b80516001600160a01b03811681146102b957600080fd5b919050565b805163ffffffff811681146102b957600080fd5b600080600080600080600060e0888a0312156102ed57600080fd5b6102f6886102a2565b96506020880151955061030b604089016102a2565b945060608801519350610320608089016102be565b925060a088015161ffff8116811461033757600080fd5b915061034560c089016102be565b905092959891949750929550565b60805160a05160c05160e051610100516124816103dd600039600081816103980152818161062e0152818161073b01528181610869015281816109c501528181610ff5015281816110a901528181611281015281816115d701528181611696015261195101526000610ada01526000610aa101526000610a5101526000610a7401526124816000f3fe608060405234801561001057600080fd5b506004361061018e5760003560e01c80637cd2d47c116100de578063b0e8d08611610097578063de8be8e711610071578063de8be8e7146103e1578063e7efcfc214610406578063f2fde38b1461040f578063f50b135a1461042257600080fd5b8063b0e8d08614610380578063b8fcf93714610393578063d5391393146103ba57600080fd5b80637cd2d47c146103125780638456cb591461031a5780638da5cb5b146103225780638ea981171461034757806393e955bd1461035a5780639eccacf61461036d57600080fd5b80633f4ba83a1161014b5780635c975abb116101255780635c975abb1461025257806360b663bb146102685780636f9fb98a1461030257806379ba50971461030a57600080fd5b80633f4ba83a1461021c5780634e43603a146102245780635c4921291461024957600080fd5b80630176cf5e146101935780631aff30dd146101b95780631fe543e3146101d0578063282c51f3146101e55780632cf057721461020c5780632cf685a414610214575b600080fd5b6101a66101a1366004612007565b610442565b6040519081526020015b60405180910390f35b6101c1610d87565b6040516101b093929190612029565b6101e36101de3660046120be565b610e70565b005b6101a67f3c11d16cbaffd01df69ce1c404f6340ee057498f5f00246190ea54220576a84881565b6101e3610ec1565b6101e3610f7a565b6101e361119f565b61023761023236600461215b565b6111b1565b6040516101b0969594939291906121b2565b6101a660115481565b60005460ff1660405190151581526020016101b0565b600554600654600754600854600954600a54600b54600c54600d546102ae9860ff808216996101009092041697909690956001600160a01b03909116949093909290918a565b604080519a15158b5298151560208b01529789019690965260608801949094526001600160a01b03909216608087015260a086015260c085015260e0840152610100830152610120820152610140016101b0565b6101a6611269565b6101e36112f9565b6101e36113a7565b6101e3611820565b6002546001600160a01b03165b6040516001600160a01b0390911681526020016101b0565b6101e361035536600461215b565b611830565b6101e36103683660046121ef565b611923565b60045461032f906001600160a01b031681565b6101e361038e36600461221b565b6119b1565b61032f7f000000000000000000000000000000000000000000000000000000000000000081565b6101a67f9f2df0fed2c77648de5860a4cc508cd0818c85b8b8a1ab4ceeef8d981c8956a681565b600454600160a01b900463ffffffff1660405163ffffffff90911681526020016101b0565b6101a660125481565b6101e361041d36600461215b565b611a22565b610435610430366004612241565b611a36565b6040516101b0919061226b565b600061044c611b1d565b610454611b47565b604080516060808252601190820152705374617274696e6720706c61794469636560781b608082015233602082015290810183905260008051602061242c8339815191529060a00160405180910390a18160000361051a57604080516060808252600e908201526d125b9d985b1a5908185b5bdd5b9d60921b608082015233602082015290810183905260008051602061242c8339815191529060a00160405180910390a1604051636cab86db60e01b8152600560048201526024015b60405180910390fd5b60055460ff1615610593576040805160608082526013908201527247616d6520616c72656164792061637469766560681b608082015233602082015290810183905260008051602061242c8339815191529060a00160405180910390a160405163d6d1036b60e01b815260016004820152602401610511565b60018310806105a25750600683115b1561061057604080516060808252600e908201526d24b73b30b634b210373ab6b132b960911b608082015233602082015290810183905260008051602061242c8339815191529060a00160405180910390a1604051636cab86db60e01b815260066004820152602401610511565b604051636eb1769f60e11b81523360048201523060248201526000907f00000000000000000000000000000000000000000000000000000000000000006001600160a01b03169063dd62ed3e90604401602060405180830381865afa15801561067d573d6000803e3d6000fd5b505050506040513d601f19601f820116820180604052508101906106a1919061227e565b9050828110156107235760408051606080825260169082015275496e73756666696369656e7420616c6c6f77616e636560501b608082015233602082015290810182905260008051602061242c8339815191529060a00160405180910390a16040516302fa826960e51b81526004810184905260248101829052604401610511565b6040516370a0823160e01b81523360048201526000907f00000000000000000000000000000000000000000000000000000000000000006001600160a01b0316906370a0823190602401602060405180830381865afa15801561078a573d6000803e3d6000fd5b505050506040513d601f19601f820116820180604052508101906107ae919061227e565b90508381101561082e5760408051606080825260149082015273496e73756666696369656e742062616c616e636560601b608082015233602082015290810182905260008051602061242c8339815191529060a00160405180910390a16040516302fa826960e51b81526004810185905260248101829052604401610511565b604051632474521560e21b81527f3c11d16cbaffd01df69ce1c404f6340ee057498f5f00246190ea54220576a84860048201523060248201527f00000000000000000000000000000000000000000000000000000000000000006001600160a01b0316906391d1485490604401602060405180830381865afa1580156108b8573d6000803e3d6000fd5b505050506040513d601f19601f820116820180604052508101906108dc9190612297565b61094d57604080516060808252601390820152724d697373696e67204255524e45525f524f4c4560681b6080820152336020820152600081830152905160008051602061242c8339815191529181900360a00190a160405163d64796dd60e01b815260016004820152602401610511565b6040805160608082526019908201527f417474656d7074696e6720746f206275726e20746f6b656e7300000000000000608082015233602082015290810185905260008051602061242c8339815191529060a00160405180910390a1604051632770a7eb60e21b8152336004820152602481018590527f00000000000000000000000000000000000000000000000000000000000000006001600160a01b031690639dc29fac90604401600060405180830381600087803b158015610a1157600080fd5b505af1925050508015610a22575060015b610a425760405163c39ba1a960e01b815260016004820152602401610511565b6004546040805160c0810182527f000000000000000000000000000000000000000000000000000000000000000081527f000000000000000000000000000000000000000000000000000000000000000060208083019190915261ffff7f0000000000000000000000000000000000000000000000000000000000000000168284015263ffffffff600160a01b8504811660608401527f00000000000000000000000000000000000000000000000000000000000000001660808301528251908101909252600082526001600160a01b0390921691639b1c385e9160a0820190610b2b90611b6b565b8152506040518263ffffffff1660e01b8152600401610b4a91906122b9565b6020604051808303816000875af1925050508015610b85575060408051601f3d908101601f19168201909252610b829181019061227e565b60015b610ba55760405163588860ed60e11b815260016004820152602401610511565b9250604080516060810182526000808252600160208301529091820190604051908082528060200260200182016040528015610beb578160200160208202803683370190505b509052600084815260106020908152604091829020835181548584015115156101000261ff00199215159290921661ffff1990911617178155918301518051610c3a9260018501920190611f4e565b505060408051610140810182526001808252600060208084018290528385018b905260608401829052336080850181905260a085018b90524260c0860181905260e0860184905261010086018b90526101209095018390526005805461ffff191690941790935560068b90556007829055600880546001600160a01b0319908116851790915560098b9055600a94909455600b829055600c899055600d829055888252600f815284822080549094168317909355908152600e909152908120805490925086918391610d0d908490612381565b9091555050600381018054906000610d2483612394565b9091555050426004820181905560408051888152602081018890529081019190915233907f8bc1525df5f55525cd51fcb92105b3409abd8046d41ce5a08947b84edc563a439060600160405180910390a2505050610d8160018055565b92915050565b600080610ded604051806101400160405280600015158152602001600015158152602001600081526020016000815260200160006001600160a01b0316815260200160008152602001600081526020016000815260200160008152602001600081525090565b5050601154601254604080516101408101825260055460ff808216151583526101009182900416151560208301526006549282019290925260075460608201526008546001600160a01b0316608082015260095460a0820152600a5460c0820152600b5460e0820152600c5491810191909152600d546101208201529193909250565b6004546001600160a01b03163314610eb1576004805460405163073e64fd60e21b815233928101929092526001600160a01b03166024820152604401610511565b610ebc838383611bdc565b505050565b610ec9611d25565b60055460ff16610eef5760405163d6d1036b60e01b815260026004820152602401610511565b600a54610eff90610e1090612381565b4211610f215760405163d6d1036b60e01b815260066004820152602401610511565b600c80546000908152600f6020526040812080546001600160a01b03199081169091556005805461ffff19169055600682905560078290556008805490911690556009819055600a819055600b81905590819055600d55565b610f82611d25565b60055460ff16610fa85760405163d6d1036b60e01b815260026004820152602401610511565b600854600c54604051632474521560e21b81527f9f2df0fed2c77648de5860a4cc508cd0818c85b8b8a1ab4ceeef8d981c8956a660048201523060248201526001600160a01b03928316927f000000000000000000000000000000000000000000000000000000000000000016906391d1485490604401602060405180830381865afa15801561103c573d6000803e3d6000fd5b505050506040513d601f19601f820116820180604052508101906110609190612297565b61107f5760405163d64796dd60e01b8152600481810152602401610511565b6009546040516340c10f1960e01b81526001600160a01b03848116600483015260248201929092527f0000000000000000000000000000000000000000000000000000000000000000909116906340c10f1990604401600060405180830381600087803b1580156110ef57600080fd5b505af1925050508015611100575060015b6111205760405163c39ba1a960e01b815260036004820152602401610511565b6000818152600f6020908152604080832080546001600160a01b03199081169091556005805461ffff1990811690915560068590556007859055600880549092169091556009849055600a849055600b849055600c849055600d8490556010909252822080549091168155906111996001830182611f99565b50505050565b6111a7611d25565b6111af611d78565b565b600080600080600060606000600e6000896001600160a01b03166001600160a01b03168152602001908152602001600020905080600301548160000154826001015483600201548460040154856006018080548060200260200160405190810160405280929190818152602001828054801561124c57602002820191906000526020600020905b815481526020019060010190808311611238575b505050505090509650965096509650965096505091939550919395565b6040516370a0823160e01b81523060048201526000907f00000000000000000000000000000000000000000000000000000000000000006001600160a01b0316906370a0823190602401602060405180830381865afa1580156112d0573d6000803e3d6000fd5b505050506040513d601f19601f820116820180604052508101906112f4919061227e565b905090565b6003546001600160a01b0316331461134c5760405162461bcd60e51b815260206004820152601660248201527526bab9ba10313290383937b837b9b2b21037bbb732b960511b6044820152606401610511565b600280546001600160a01b0319808216339081179093556003805490911690556040516001600160a01b03909116919082907f8be0079c531659141344cd1fd0a4f28419497f9722a3daafe3b4186f6b6457e090600090a350565b6113af611b1d565b60055460ff166113d55760405163d6d1036b60e01b815260026004820152602401610511565b600554610100900460ff166113ff5760405163d6d1036b60e01b8152600481810152602401610511565b600754156114235760405163d6d1036b60e01b815260056004820152602401610511565b600d54600090611435906006906123c3565b611440906001612381565b6008546001600160a01b03166000908152600e602090815260408220600680820180546001810182559085529284209092018490559054600954939450909261148a919085611dca565b6007848155600b828155600585810180546001818101835560009283526020832084546009938402909101805460ff928316151560ff19821681178355875461010090819004909416151590930261ff001990931661ffff1990911617919091178155600680549282019290925586546002820155600880546003830180546001600160a01b0319166001600160a01b0390921691909117905592546004820155600a5494810194909455935493830193909355600c5493820193909355600d54910155601180549293509061155f83612394565b90915550508015611711578082600101600082825461157e9190612381565b9250508190555080601260008282546115979190612381565b9091555050604051632474521560e21b81527f9f2df0fed2c77648de5860a4cc508cd0818c85b8b8a1ab4ceeef8d981c8956a660048201523060248201527f00000000000000000000000000000000000000000000000000000000000000006001600160a01b0316906391d1485490604401602060405180830381865afa158015611626573d6000803e3d6000fd5b505050506040513d601f19601f8201168201806040525081019061164a9190612297565b61166a5760405163d64796dd60e01b815260026004820152602401610511565b6008546040516340c10f1960e01b81526001600160a01b039182166004820152602481018390526000917f000000000000000000000000000000000000000000000000000000000000000016906340c10f1990604401600060405180830381600087803b1580156116da57600080fd5b505af19250505080156116eb575060015b61170b5760405163c39ba1a960e01b815260026004820152602401610511565b5061172e565b600954600283018054600090611728908490612381565b90915550505b600854600654600954600a5460408051938452602084018890528301919091526060820184905260808201526001600160a01b03909116907fa64cde676fd0b150704d49bbb3d78edc1ce34c34c72aa3380a690e13094edcd19060a00160405180910390a2600c80546000818152600f6020908152604080832080546001600160a01b03199081169091556005805461ffff1990811690915560068590556007859055600880549092169091556009849055600a849055600b84905594839055600d83905560109091528120805490931683559091906118116001830182611f99565b5050505050506111af60018055565b611828611d25565b6111af611e44565b6002546001600160a01b0316331480159061185657506004546001600160a01b03163314155b156118a8573361186e6002546001600160a01b031690565b6004805460405163061db9c160e01b81526001600160a01b0394851692810192909252918316602482015291166044820152606401610511565b6001600160a01b0381166118cf5760405163d92e233d60e01b815260040160405180910390fd5b600480546001600160a01b0319166001600160a01b0383169081179091556040519081527fd1a6a14209a385a964d036e404cb5cfb71f4000cdb03c9366292430787261be69060200160405180910390a150565b61192b611d25565b60405163d547741f60e01b8152600481018390526001600160a01b0382811660248301527f0000000000000000000000000000000000000000000000000000000000000000169063d547741f90604401600060405180830381600087803b15801561199557600080fd5b505af11580156119a9573d6000803e3d6000fd5b505050505050565b6119b9611d25565b6004805463ffffffff838116600160a01b81810263ffffffff60a01b1985161790945560408051949093049091168084526020840191909152917f7c762fcc4f45afe3829913a024ea45c617722aec34739245c1e52a7ce483e37a910160405180910390a15050565b611a2a611d25565b611a3381611e81565b50565b6001600160a01b0382166000908152600e602052604081206006810154606092818510611a635781611a65565b845b905060008167ffffffffffffffff811115611a8257611a82612355565b604051908082528060200260200182016040528015611aab578160200160208202803683370190505b50905060005b82811015611b12576006850181611ac885876123d7565b611ad29190612381565b81548110611ae257611ae26123ea565b9060005260206000200154828281518110611aff57611aff6123ea565b6020908102919091010152600101611ab1565b509695505050505050565b600260015403611b4057604051633ee5aeb560e01b815260040160405180910390fd5b6002600155565b60005460ff16156111af5760405163d93c066560e01b815260040160405180910390fd5b60607f92fd13387c7fe7befbc38d303d6468778fb9731bc4583f17d92989c6fcfdeaaa82604051602401611ba491511515815260200190565b60408051601f198184030181529190526020810180516001600160e01b03166001600160e01b03199093169290921790915292915050565b600083815260106020526040902054610100900460ff16611c335760405162461bcd60e51b81526020600482015260116024820152701c995c5d595cdd081b9bdd08199bdd5b99607a1b6044820152606401610511565b6000838152601060205260409020805460ff191660019081178255611c5a91018383611fb7565b5060055460ff16611c815760405163d6d1036b60e01b815260026004820152602401610511565b6008546000848152600f60205260409020546001600160a01b03908116911614611cc15760405163d6d1036b60e01b815260036004820152602401610511565b6005805461ff0019166101001790558181600081611ce157611ce16123ea565b60209081029290920135600d55506040518481527f0b9d986f2a7f5792e6c11fb4d29a2b7e0723e4f4d6cdcc9fc5496d45204c072a910160405180910390a1505050565b6002546001600160a01b031633146111af5760405162461bcd60e51b815260206004820152601660248201527527b7363c9031b0b63630b1363290313c9037bbb732b960511b6044820152606401610511565b611d80611f2b565b6000805460ff191690557f5db9ee0a495bf2e6ff9c91a7834c1ba4fdd244a5e8aa4e537bd38aeae4b073aa335b6040516001600160a01b03909116815260200160405180910390a1565b6000818403611e3957611de06006600019612400565b831115611e275760405163193a897b60e11b815260206004820152601460248201527342657420616d6f756e7420746f6f206c6172676560601b6044820152606401610511565b611e32836006612414565b9050611e3d565b5060005b9392505050565b611e4c611b47565b6000805460ff191660011790557f62e78cea01bee320cd4e420270b5ea74000d11b0c9f74754ebdbfc544b05a258611dad3390565b336001600160a01b03821603611ed95760405162461bcd60e51b815260206004820152601760248201527f43616e6e6f74207472616e7366657220746f2073656c660000000000000000006044820152606401610511565b600380546001600160a01b0319166001600160a01b03838116918217909255600254604051919216907fed8889f560326eb138920d842192f0eb3dd22b4f139c87a2c57538e05bae127890600090a350565b60005460ff166111af57604051638dfc202b60e01b815260040160405180910390fd5b828054828255906000526020600020908101928215611f89579160200282015b82811115611f89578251825591602001919060010190611f6e565b50611f95929150611ff2565b5090565b5080546000825590600052602060002090810190611a339190611ff2565b828054828255906000526020600020908101928215611f89579160200282015b82811115611f89578235825591602001919060010190611fd7565b5b80821115611f955760008155600101611ff3565b6000806040838503121561201a57600080fd5b50508035926020909101359150565b838152602081018390528151151560408201526101808101602083015180151560608401525060408301516080830152606083015160a0830152608083015161207d60c08401826001600160a01b03169052565b5060a083015160e083015260c083015161010083015260e0830151610120830152610100830151610140830152610120830151610160830152949350505050565b6000806000604084860312156120d357600080fd5b83359250602084013567ffffffffffffffff8111156120f157600080fd5b8401601f8101861361210257600080fd5b803567ffffffffffffffff81111561211957600080fd5b8660208260051b840101111561212e57600080fd5b939660209190910195509293505050565b80356001600160a01b038116811461215657600080fd5b919050565b60006020828403121561216d57600080fd5b611e3d8261213f565b600081518084526020840193506020830160005b828110156121a857815186526020958601959091019060010161218a565b5093949350505050565b86815285602082015284604082015283606082015282608082015260c060a082015260006121e360c0830184612176565b98975050505050505050565b6000806040838503121561220257600080fd5b823591506122126020840161213f565b90509250929050565b60006020828403121561222d57600080fd5b813563ffffffff81168114611e3d57600080fd5b6000806040838503121561225457600080fd5b61225d8361213f565b946020939093013593505050565b602081526000611e3d6020830184612176565b60006020828403121561229057600080fd5b5051919050565b6000602082840312156122a957600080fd5b81518015158114611e3d57600080fd5b60208152815160208201526020820151604082015261ffff604083015116606082015263ffffffff606083015116608082015263ffffffff60808301511660a0820152600060a083015160c08084015280518060e085015260005b81811015612332576020818401810151610100878401015201612314565b5060006101008286010152610100601f19601f8301168501019250505092915050565b634e487b7160e01b600052604160045260246000fd5b634e487b7160e01b600052601160045260246000fd5b80820180821115610d8157610d8161236b565b6000600182016123a6576123a661236b565b5060010190565b634e487b7160e01b600052601260045260246000fd5b6000826123d2576123d26123ad565b500690565b81810381811115610d8157610d8161236b565b634e487b7160e01b600052603260045260246000fd5b60008261240f5761240f6123ad565b500490565b8082028115828204841417610d8157610d8161236b56fee5589756feb14fa54053633b30d9de8c8c4a3347afc5bd6efc411f7823ae87f2a2646970667358221220647e7d1fc8b2d04c7bf51f3a23269378dcd73c5e34602874adc4e7e2a22a940164736f6c634300081a0033","linkReferences":{}},"methodIdentifiers":{"BURNER_ROLE()":"282c51f3","MINTER_ROLE()":"d5391393","acceptOwnership()":"79ba5097","currentGame()":"60b663bb","forceStopGame()":"2cf685a4","getCallbackGasLimit()":"de8be8e7","getContractBalance()":"6f9fb98a","getGameStats()":"1aff30dd","getPlayerLastNRolls(address,uint256)":"f50b135a","getUserStats(address)":"4e43603a","myToken()":"b8fcf937","owner()":"8da5cb5b","pause()":"8456cb59","paused()":"5c975abb","playDice(uint256,uint256)":"0176cf5e","rawFulfillRandomWords(uint256,uint256[])":"1fe543e3","recoverStuckGame()":"2cf05772","resolveGame()":"7cd2d47c","revokeTokenRole(bytes32,address)":"93e955bd","s_vrfCoordinator()":"9eccacf6","setCoordinator(address)":"8ea98117","totalGamesPlayed()":"5c492129","totalPayoutAmount()":"e7efcfc2","transferOwnership(address)":"f2fde38b","unpause()":"3f4ba83a","updateCallbackGasLimit(uint32)":"b0e8d086"},"id":32}