{"abi":[{"type":"constructor","inputs":[{"name":"_myTokenAddress","type":"address","internalType":"address"},{"name":"subscriptionId","type":"uint64","internalType":"uint64"},{"name":"vrfCoordinator","type":"address","internalType":"address"},{"name":"keyHash","type":"bytes32","internalType":"bytes32"},{"name":"_callbackGasLimit","type":"uint32","internalType":"uint32"},{"name":"_requestConfirmations","type":"uint16","internalType":"uint16"},{"name":"_numWords","type":"uint32","internalType":"uint32"}],"stateMutability":"nonpayable"},{"type":"function","name":"BURNER_ROLE","inputs":[],"outputs":[{"name":"","type":"bytes32","internalType":"bytes32"}],"stateMutability":"view"},{"type":"function","name":"DENOMINATOR","inputs":[],"outputs":[{"name":"","type":"uint256","internalType":"uint256"}],"stateMutability":"view"},{"type":"function","name":"MAX_NUMBER","inputs":[],"outputs":[{"name":"","type":"uint8","internalType":"uint8"}],"stateMutability":"view"},{"type":"function","name":"MINTER_ROLE","inputs":[],"outputs":[{"name":"","type":"bytes32","internalType":"bytes32"}],"stateMutability":"view"},{"type":"function","name":"emergencyWithdraw","inputs":[{"name":"token","type":"address","internalType":"address"},{"name":"amount","type":"uint256","internalType":"uint256"}],"outputs":[],"stateMutability":"nonpayable"},{"type":"function","name":"getBetHistory","inputs":[{"name":"player","type":"address","internalType":"address"}],"outputs":[{"name":"","type":"tuple[]","internalType":"struct Bet[]","components":[{"name":"numbers","type":"uint8[]","internalType":"uint8[]"},{"name":"amount","type":"uint256","internalType":"uint256"},{"name":"betType","type":"uint8","internalType":"enum BetType"},{"name":"timestamp","type":"uint256","internalType":"uint256"},{"name":"winningNumber","type":"uint8","internalType":"uint8"},{"name":"completed","type":"bool","internalType":"bool"},{"name":"payout","type":"uint256","internalType":"uint256"}]}],"stateMutability":"view"},{"type":"function","name":"getBetTypeAsUint","inputs":[{"name":"betType","type":"uint8","internalType":"enum BetType"}],"outputs":[{"name":"","type":"uint256","internalType":"uint256"}],"stateMutability":"pure"},{"type":"function","name":"getCallbackGasLimit","inputs":[],"outputs":[{"name":"","type":"uint32","internalType":"uint32"}],"stateMutability":"view"},{"type":"function","name":"getContractBalance","inputs":[],"outputs":[{"name":"","type":"uint256","internalType":"uint256"}],"stateMutability":"view"},{"type":"function","name":"getContractStats","inputs":[],"outputs":[{"name":"totalGames","type":"uint256","internalType":"uint256"},{"name":"totalPayout","type":"uint256","internalType":"uint256"},{"name":"currentBalance","type":"uint256","internalType":"uint256"}],"stateMutability":"view"},{"type":"function","name":"getLastPlayerBet","inputs":[{"name":"player","type":"address","internalType":"address"}],"outputs":[{"name":"","type":"tuple","internalType":"struct Bet","components":[{"name":"numbers","type":"uint8[]","internalType":"uint8[]"},{"name":"amount","type":"uint256","internalType":"uint256"},{"name":"betType","type":"uint8","internalType":"enum BetType"},{"name":"timestamp","type":"uint256","internalType":"uint256"},{"name":"winningNumber","type":"uint8","internalType":"uint8"},{"name":"completed","type":"bool","internalType":"bool"},{"name":"payout","type":"uint256","internalType":"uint256"}]}],"stateMutability":"view"},{"type":"function","name":"getPayoutMultiplier","inputs":[{"name":"betType","type":"uint8","internalType":"enum BetType"}],"outputs":[{"name":"","type":"uint256","internalType":"uint256"}],"stateMutability":"pure"},{"type":"function","name":"getPlayerBets","inputs":[{"name":"player","type":"address","internalType":"address"}],"outputs":[{"name":"","type":"tuple[]","internalType":"struct Bet[]","components":[{"name":"numbers","type":"uint8[]","internalType":"uint8[]"},{"name":"amount","type":"uint256","internalType":"uint256"},{"name":"betType","type":"uint8","internalType":"enum BetType"},{"name":"timestamp","type":"uint256","internalType":"uint256"},{"name":"winningNumber","type":"uint8","internalType":"uint8"},{"name":"completed","type":"bool","internalType":"bool"},{"name":"payout","type":"uint256","internalType":"uint256"}]}],"stateMutability":"view"},{"type":"function","name":"getUserGameData","inputs":[{"name":"player","type":"address","internalType":"address"}],"outputs":[{"name":"","type":"tuple","internalType":"struct UserGameData","components":[{"name":"winningNumbersHistory","type":"uint8[]","internalType":"uint8[]"},{"name":"totalBets","type":"uint256","internalType":"uint256"},{"name":"totalWinnings","type":"uint256","internalType":"uint256"},{"name":"totalLosses","type":"uint256","internalType":"uint256"},{"name":"bets","type":"tuple[]","internalType":"struct Bet[]","components":[{"name":"numbers","type":"uint8[]","internalType":"uint8[]"},{"name":"amount","type":"uint256","internalType":"uint256"},{"name":"betType","type":"uint8","internalType":"enum BetType"},{"name":"timestamp","type":"uint256","internalType":"uint256"},{"name":"winningNumber","type":"uint8","internalType":"uint8"},{"name":"completed","type":"bool","internalType":"bool"},{"name":"payout","type":"uint256","internalType":"uint256"}]},{"name":"gamesPlayed","type":"uint256","internalType":"uint256"},{"name":"lastPlayedTimestamp","type":"uint256","internalType":"uint256"}]}],"stateMutability":"view"},{"type":"function","name":"grantTokenRole","inputs":[{"name":"role","type":"bytes32","internalType":"bytes32"},{"name":"account","type":"address","internalType":"address"}],"outputs":[],"stateMutability":"nonpayable"},{"type":"function","name":"myToken","inputs":[],"outputs":[{"name":"","type":"address","internalType":"contract IMyToken"}],"stateMutability":"view"},{"type":"function","name":"owner","inputs":[],"outputs":[{"name":"","type":"address","internalType":"address"}],"stateMutability":"view"},{"type":"function","name":"pause","inputs":[],"outputs":[],"stateMutability":"nonpayable"},{"type":"function","name":"paused","inputs":[],"outputs":[{"name":"","type":"bool","internalType":"bool"}],"stateMutability":"view"},{"type":"function","name":"placeBetAndSpin","inputs":[{"name":"numbers","type":"uint8[]","internalType":"uint8[]"},{"name":"betType","type":"uint8","internalType":"enum BetType"},{"name":"amount","type":"uint256","internalType":"uint256"}],"outputs":[{"name":"requestId","type":"uint256","internalType":"uint256"}],"stateMutability":"nonpayable"},{"type":"function","name":"rawFulfillRandomWords","inputs":[{"name":"requestId","type":"uint256","internalType":"uint256"},{"name":"randomWords","type":"uint256[]","internalType":"uint256[]"}],"outputs":[],"stateMutability":"nonpayable"},{"type":"function","name":"renounceOwnership","inputs":[],"outputs":[],"stateMutability":"nonpayable"},{"type":"function","name":"revokeTokenRole","inputs":[{"name":"role","type":"bytes32","internalType":"bytes32"},{"name":"account","type":"address","internalType":"address"}],"outputs":[],"stateMutability":"nonpayable"},{"type":"function","name":"totalGamesPlayed","inputs":[],"outputs":[{"name":"","type":"uint256","internalType":"uint256"}],"stateMutability":"view"},{"type":"function","name":"totalPayoutAmount","inputs":[],"outputs":[{"name":"","type":"uint256","internalType":"uint256"}],"stateMutability":"view"},{"type":"function","name":"transferOwnership","inputs":[{"name":"newOwner","type":"address","internalType":"address"}],"outputs":[],"stateMutability":"nonpayable"},{"type":"function","name":"unpause","inputs":[],"outputs":[],"stateMutability":"nonpayable"},{"type":"function","name":"updateCallbackGasLimit","inputs":[{"name":"newCallbackGasLimit","type":"uint32","internalType":"uint32"}],"outputs":[],"stateMutability":"nonpayable"},{"type":"function","name":"userData","inputs":[{"name":"","type":"address","internalType":"address"}],"outputs":[{"name":"totalBets","type":"uint256","internalType":"uint256"},{"name":"totalWinnings","type":"uint256","internalType":"uint256"},{"name":"totalLosses","type":"uint256","internalType":"uint256"},{"name":"gamesPlayed","type":"uint256","internalType":"uint256"},{"name":"lastPlayedTimestamp","type":"uint256","internalType":"uint256"}],"stateMutability":"view"},{"type":"function","name":"verifyContractRoles","inputs":[],"outputs":[],"stateMutability":"view"},{"type":"event","name":"BetPlaced","inputs":[{"name":"player","type":"address","indexed":true,"internalType":"address"},{"name":"numbers","type":"uint8[]","indexed":false,"internalType":"uint8[]"},{"name":"amount","type":"uint256","indexed":false,"internalType":"uint256"},{"name":"betType","type":"uint8","indexed":false,"internalType":"enum BetType"},{"name":"requestId","type":"uint256","indexed":true,"internalType":"uint256"},{"name":"timestamp","type":"uint256","indexed":false,"internalType":"uint256"}],"anonymous":false},{"type":"event","name":"CallbackGasLimitUpdated","inputs":[{"name":"oldLimit","type":"uint32","indexed":false,"internalType":"uint32"},{"name":"newLimit","type":"uint32","indexed":false,"internalType":"uint32"}],"anonymous":false},{"type":"event","name":"ContractBalanceUpdated","inputs":[{"name":"newBalance","type":"uint256","indexed":false,"internalType":"uint256"}],"anonymous":false},{"type":"event","name":"ContractPaused","inputs":[{"name":"by","type":"address","indexed":true,"internalType":"address"}],"anonymous":false},{"type":"event","name":"ContractUnpaused","inputs":[{"name":"by","type":"address","indexed":true,"internalType":"address"}],"anonymous":false},{"type":"event","name":"EmergencyWithdrawal","inputs":[{"name":"token","type":"address","indexed":true,"internalType":"address"},{"name":"amount","type":"uint256","indexed":false,"internalType":"uint256"},{"name":"to","type":"address","indexed":true,"internalType":"address"}],"anonymous":false},{"type":"event","name":"OwnershipTransferred","inputs":[{"name":"previousOwner","type":"address","indexed":true,"internalType":"address"},{"name":"newOwner","type":"address","indexed":true,"internalType":"address"}],"anonymous":false},{"type":"event","name":"Paused","inputs":[{"name":"account","type":"address","indexed":false,"internalType":"address"}],"anonymous":false},{"type":"event","name":"RoleGranted","inputs":[{"name":"role","type":"bytes32","indexed":true,"internalType":"bytes32"},{"name":"account","type":"address","indexed":true,"internalType":"address"},{"name":"by","type":"address","indexed":true,"internalType":"address"}],"anonymous":false},{"type":"event","name":"RoleRevoked","inputs":[{"name":"role","type":"bytes32","indexed":true,"internalType":"bytes32"},{"name":"account","type":"address","indexed":true,"internalType":"address"},{"name":"by","type":"address","indexed":true,"internalType":"address"}],"anonymous":false},{"type":"event","name":"SpinComplete","inputs":[{"name":"player","type":"address","indexed":true,"internalType":"address"},{"name":"winningNumber","type":"uint8","indexed":false,"internalType":"uint8"},{"name":"payout","type":"uint256","indexed":false,"internalType":"uint256"},{"name":"requestId","type":"uint256","indexed":true,"internalType":"uint256"},{"name":"betType","type":"uint8","indexed":false,"internalType":"enum BetType"},{"name":"numbers","type":"uint8[]","indexed":false,"internalType":"uint8[]"},{"name":"originalBetAmount","type":"uint256","indexed":false,"internalType":"uint256"},{"name":"isWin","type":"bool","indexed":false,"internalType":"bool"}],"anonymous":false},{"type":"event","name":"Unpaused","inputs":[{"name":"account","type":"address","indexed":false,"internalType":"address"}],"anonymous":false},{"type":"event","name":"UserBalanceUpdated","inputs":[{"name":"user","type":"address","indexed":true,"internalType":"address"},{"name":"newBalance","type":"uint256","indexed":false,"internalType":"uint256"}],"anonymous":false},{"type":"error","name":"BurnFailed","inputs":[{"name":"account","type":"address","internalType":"address"},{"name":"amount","type":"uint256","internalType":"uint256"}]},{"type":"error","name":"EnforcedPause","inputs":[]},{"type":"error","name":"ExpectedPause","inputs":[]},{"type":"error","name":"InsufficientAllowance","inputs":[{"name":"required","type":"uint256","internalType":"uint256"},{"name":"allowed","type":"uint256","internalType":"uint256"}]},{"type":"error","name":"InsufficientContractBalance","inputs":[{"name":"required","type":"uint256","internalType":"uint256"},{"name":"available","type":"uint256","internalType":"uint256"}]},{"type":"error","name":"InsufficientUserBalance","inputs":[{"name":"required","type":"uint256","internalType":"uint256"},{"name":"available","type":"uint256","internalType":"uint256"}]},{"type":"error","name":"InvalidBetParameters","inputs":[{"name":"reason","type":"string","internalType":"string"}]},{"type":"error","name":"InvalidBetType","inputs":[{"name":"betType","type":"uint256","internalType":"uint256"}]},{"type":"error","name":"MintFailed","inputs":[{"name":"account","type":"address","internalType":"address"},{"name":"amount","type":"uint256","internalType":"uint256"}]},{"type":"error","name":"MissingContractRole","inputs":[{"name":"role","type":"bytes32","internalType":"bytes32"}]},{"type":"error","name":"OnlyCoordinatorCanFulfill","inputs":[{"name":"have","type":"address","internalType":"address"},{"name":"want","type":"address","internalType":"address"}]},{"type":"error","name":"OwnableInvalidOwner","inputs":[{"name":"owner","type":"address","internalType":"address"}]},{"type":"error","name":"OwnableUnauthorizedAccount","inputs":[{"name":"account","type":"address","internalType":"address"}]},{"type":"error","name":"ReentrancyGuardReentrantCall","inputs":[]},{"type":"error","name":"TransferFailed","inputs":[{"name":"from","type":"address","internalType":"address"},{"name":"to","type":"address","internalType":"address"},{"name":"amount","type":"uint256","internalType":"uint256"}]},{"type":"error","name":"VRFRequestFailed","inputs":[{"name":"reason","type":"string","internalType":"string"}]}],"bytecode":{"object":"0x61014060405234801561001157600080fd5b506040516142ca3803806142ca83398101604081905261003091610161565b6000805460ff1916905584338061006157604051631e4fbdf760e01b81526000600482015260240160405180910390fd5b61006a816100d8565b50600180556001600160a01b0390811660805294851660a0526001600160401b0390951660c05260e0929092526002805461ffff9093166101005263ffffffff9485166101205294909216640100000000026001600160c01b031990911692909116919091171790556101f8565b600080546001600160a01b03838116610100818102610100600160a81b0319851617855560405193049190911692909183917f8be0079c531659141344cd1fd0a4f28419497f9722a3daafe3b4186f6b6457e091a35050565b80516001600160a01b038116811461014857600080fd5b919050565b805163ffffffff8116811461014857600080fd5b600080600080600080600060e0888a03121561017c57600080fd5b61018588610131565b60208901519097506001600160401b03811681146101a257600080fd5b95506101b060408901610131565b9450606088015193506101c56080890161014d565b925060a088015161ffff811681146101dc57600080fd5b91506101ea60c0890161014d565b905092959891949750929550565b60805160a05160c05160e051610100516101205161407c61024e60003960006109af0152600061097b0152600061092201526000610951015260006109d8015260008181610fc60152611008015261407c6000f3fe608060405234801561001057600080fd5b50600436106101da5760003560e01c8063918f867411610104578063ce84a53b116100a2578063e7efcfc211610071578063e7efcfc21461044d578063eaf07c8c14610456578063f2fde38b14610469578063fea9b5721461047c57600080fd5b8063ce84a53b146103dd578063d5391393146103fd578063de8be8e714610412578063dfe6b5d61461042a57600080fd5b806399945cb0116100de57806399945cb014610335578063b0e8d08614610348578063b8fcf9371461035b578063c89109131461037557600080fd5b8063918f86741461030657806393e955bd1461030f57806395ccea671461032257600080fd5b80634efa3b541161017c5780636f9fb98a1161014b5780636f9fb98a146102c4578063715018a6146102cc5780638456cb59146102d45780638da5cb5b146102dc57600080fd5b80634efa3b54146102725780635b13c639146102925780635c492129146102a55780635c975abb146102ae57600080fd5b80631fe543e3116101b85780631fe543e31461022f578063282c51f3146102425780633388721a146102575780633f4ba83a1461026a57600080fd5b806307aa6955146101df57806310e05deb1461020557806312f011f41461020f575b600080fd5b6101f26101ed366004613353565b610496565b6040519081526020015b60405180910390f35b61020d610c81565b005b61022261021d366004613437565b610de9565b6040516101fc9190613534565b61020d61023d366004613547565b610fbb565b6101f260008051602061400783398151915281565b6101f26102653660046135f5565b611043565b61020d61105d565b610285610280366004613437565b61109a565b6040516101fc919061366c565b6101f26102a03660046135f5565b6112ed565b6101f260055481565b60005460ff1660405190151581526020016101fc565b6101f26113f8565b61020d611471565b61020d611483565b60005461010090046001600160a01b03165b6040516001600160a01b0390911681526020016101fc565b6101f261271081565b61020d61031d3660046136e5565b6114c0565b61020d610330366004613711565b611572565b61020d6103433660046136e5565b611a06565b61020d61035636600461373b565b611ab8565b6002546102ee90600160201b90046001600160a01b031681565b6103b5610383366004613437565b600360208190526000918252604090912060018101546002820154928201546005830154600690930154919392909185565b604080519586526020860194909452928401919091526060830152608082015260a0016101fc565b6103f06103eb366004613437565b611b14565b6040516101fc9190613761565b6101f260008051602061402783398151915281565b60025460405163ffffffff90911681526020016101fc565b610432611c75565b604080519384526020840192909252908201526060016101fc565b6101f260065481565b6103f0610464366004613437565b611d02565b61020d610477366004613437565b611e58565b610484602481565b60405160ff90911681526020016101fc565b60006104a0611e96565b6104a8611ec0565b6104b28484611ee4565b610504576040516334460f4160e01b815260206004820152601960248201527f496e76616c69642062657420636f6e66696775726174696f6e0000000000000060448201526064015b60405180910390fd5b6002546040516370a0823160e01b81523360048201528391600160201b90046001600160a01b0316906370a0823190602401602060405180830381865afa158015610553573d6000803e3d6000fd5b505050506040513d601f19601f820116820180604052508101906105779190613774565b1015610612576002546040516370a0823160e01b81523360048201528391600160201b90046001600160a01b0316906370a0823190602401602060405180830381865afa1580156105cc573d6000803e3d6000fd5b505050506040513d601f19601f820116820180604052508101906105f09190613774565b6040516302fa826960e51b8152600481019290925260248201526044016104fb565b600254604051632474521560e21b81526000805160206140078339815191526004820152306024820152600160201b9091046001600160a01b0316906391d1485490604401602060405180830381865afa158015610674573d6000803e3d6000fd5b505050506040513d601f19601f82011682018060405250810190610698919061378d565b6106c5576040516359f75fb760e11b815260008051602061400783398151915260048201526024016104fb565b600254604051636eb1769f60e11b81523360048201523060248201528391600160201b90046001600160a01b03169063dd62ed3e90604401602060405180830381865afa15801561071a573d6000803e3d6000fd5b505050506040513d601f19601f8201168201806040525081019061073e9190613774565b10156107df57600254604051636eb1769f60e11b81523360048201523060248201528391600160201b90046001600160a01b03169063dd62ed3e90604401602060405180830381865afa158015610799573d6000803e3d6000fd5b505050506040513d601f19601f820116820180604052508101906107bd9190613774565b60405163054365bb60e31b8152600481019290925260248201526044016104fb565b60025460405163079cc67960e41b815233600482015260248101849052600160201b9091046001600160a01b0316906379cc679090604401600060405180830381600087803b15801561083157600080fd5b505af1925050508015610842575060015b6108685760405163016f84a160e01b8152336004820152602481018390526044016104fb565b6002546040516370a0823160e01b81523360048201819052917faf5edae402c0c0b6e836a00378d20125216486bc516635cba9311f52682ec1f391600160201b9091046001600160a01b0316906370a0823190602401602060405180830381865afa1580156108db573d6000803e3d6000fd5b505050506040513d601f19601f820116820180604052508101906108ff9190613774565b60405190815260200160405180910390a26002546040516305d3b1d360e41b81527f0000000000000000000000000000000000000000000000000000000000000000600482015267ffffffffffffffff7f000000000000000000000000000000000000000000000000000000000000000016602482015261ffff7f000000000000000000000000000000000000000000000000000000000000000016604482015263ffffffff91821660648201527f000000000000000000000000000000000000000000000000000000000000000090911660848201527f00000000000000000000000000000000000000000000000000000000000000006001600160a01b031690635d3b1d309060a4016020604051808303816000875af1925050508015610a45575060408051601f3d908101601f19168201909252610a4291810190613774565b60015b610aca57610a516137af565b806308c379a003610a8b5750610a656137cb565b80610a705750610a8d565b80604051631bc0b74560e01b81526004016104fb9190613850565b505b604051631bc0b74560e01b81526020600482015260116024820152702ab735b737bbb7102b29231032b93937b960791b60448201526064016104fb565b9050600081815260046020908152604080832080546001600160a01b0319163390811790915583526003909152812060018101805491928592610b0e9084906138b4565b9091555050600581018054906000610b25836138c7565b90915550504260068201556040805160e08101825286815260208101859052600091810186600c811115610b5b57610b5b613491565b81524260208083019190915260006040830181905260608301819052608090920182905260048501805460018101825590835291819020835180519495508594600690940290910192610bb192849201906131cf565b506020820151816001015560408201518160020160006101000a81548160ff0219169083600c811115610be657610be6613491565b021790555060608201516003820155608082015160048201805460a085015115156101000261ffff1990911660ff9093169290921791909117905560c090910151600590910155604051839033907f8215673a0da090059f61fc0013d5213b30f809cc493eb78f37159ec477b12e7990610c67908a9089908b9042906138e0565b60405180910390a35050610c7a60018055565b9392505050565b600254604051632474521560e21b81526000805160206140278339815191526004820152306024820152600160201b9091046001600160a01b0316906391d1485490604401602060405180830381865afa158015610ce3573d6000803e3d6000fd5b505050506040513d601f19601f82011682018060405250810190610d07919061378d565b610d34576040516359f75fb760e11b815260008051602061402783398151915260048201526024016104fb565b600254604051632474521560e21b81526000805160206140078339815191526004820152306024820152600160201b9091046001600160a01b0316906391d1485490604401602060405180830381865afa158015610d96573d6000803e3d6000fd5b505050506040513d601f19601f82011682018060405250810190610dba919061378d565b610de7576040516359f75fb760e11b815260008051602061400783398151915260048201526024016104fb565b565b610df1613275565b6001600160a01b038216600090815260036020908152604080832060040180548251818502810185019093528083529192909190849084015b82821015610f4557838290600052602060002090600602016040518060e001604052908160008201805480602002602001604051908101604052809291908181526020018280548015610eba57602002820191906000526020600020906000905b825461010083900a900460ff16815260206001928301818104948501949093039092029101808411610e8b5790505b505050918352505060018201546020820152600282015460409091019060ff16600c811115610eeb57610eeb613491565b600c811115610efc57610efc613491565b81526003820154602080830191909152600483015460ff808216604085015261010090910416151560608301526005909201546080909101529082526001929092019101610e2a565b5050505090508051600003610f8c5760405162461bcd60e51b815260206004820152600d60248201526c139bc818995d1cc8199bdd5b99609a1b60448201526064016104fb565b8060018251610f9b9190613946565b81518110610fab57610fab613959565b6020026020010151915050919050565b336001600160a01b037f000000000000000000000000000000000000000000000000000000000000000016146110355760405163073e64fd60e21b81523360048201526001600160a01b037f00000000000000000000000000000000000000000000000000000000000000001660248201526044016104fb565b61103f82826120d7565b5050565b600081600c81111561105757611057613491565b92915050565b61106561251f565b61106d612552565b60405133907f5b65b0c1363b3003db9bcc5e1fd8805a6d6bf5bf6dc9d3431ee4494cd7d1176690600090a2565b6110da6040518060e00160405280606081526020016000815260200160008152602001600081526020016060815260200160008152602001600081525090565b6001600160a01b038216600090815260036020908152604091829020825181546101009381028201840190945260e08101848152909391928492849184018282801561116357602002820191906000526020600020906000905b825461010083900a900460ff168152602060019283018181049485019490930390920291018084116111345790505b5050505050815260200160018201548152602001600282015481526020016003820154815260200160048201805480602002602001604051908101604052809291908181526020016000905b828210156112ca57838290600052602060002090600602016040518060e00160405290816000820180548060200260200160405190810160405280929190818152602001828054801561123f57602002820191906000526020600020906000905b825461010083900a900460ff168152602060019283018181049485019490930390920291018084116112105790505b505050918352505060018201546020820152600282015460409091019060ff16600c81111561127057611270613491565b600c81111561128157611281613491565b81526003820154602080830191909152600483015460ff8082166040850152610100909104161515606083015260059092015460809091015290825260019290920191016111af565b505050508152602001600582015481526020016006820154815250509050919050565b60008082600c81111561130257611302613491565b0361131457611057612710602361396f565b600182600c81111561132857611328613491565b0361133a57611057612710601161396f565b600282600c81111561134e5761134e613491565b0361136057611057612710600b61396f565b600382600c81111561137457611374613491565b0361138657611057612710600861396f565b600482600c81111561139a5761139a613491565b036113ac57611057612710600561396f565b600582600c8111156113c0576113c0613491565b14806113dd5750600682600c8111156113db576113db613491565b145b156113ef57611057612710600261396f565b50612710919050565b6002546040516370a0823160e01b8152306004820152600091600160201b90046001600160a01b0316906370a0823190602401602060405180830381865afa158015611448573d6000803e3d6000fd5b505050506040513d601f19601f8201168201806040525081019061146c9190613774565b905090565b61147961251f565b610de760006125a4565b61148b61251f565b6114936125fd565b60405133907f81990fd9a5c552b8e3677917d8a03c07678f0d2cb68f88b634aca2022e9bd19f90600090a2565b6114c861251f565b60025460405163d547741f60e01b8152600481018490526001600160a01b038381166024830152600160201b9092049091169063d547741f90604401600060405180830381600087803b15801561151e57600080fd5b505af1158015611532573d6000803e3d6000fd5b50506040513392506001600160a01b038416915084907ff6391f5c32d9c69d2a47ea670b442974b53935d1edc7fd64eb21e047a839171b90600090a45050565b61157a61251f565b6002546001600160a01b03600160201b90910481169083160361178a576002546040516370a0823160e01b8152306004820152600160201b9091046001600160a01b0316906370a0823190602401602060405180830381865afa1580156115e5573d6000803e3d6000fd5b505050506040513d601f19601f820116820180604052508101906116099190613774565b8111156116a6576002546040516370a0823160e01b81523060048201528291600160201b90046001600160a01b0316906370a08231906024015b602060405180830381865afa158015611660573d6000803e3d6000fd5b505050506040513d601f19601f820116820180604052508101906116849190613774565b60405163b7ddd88b60e01b8152600481019290925260248201526044016104fb565b6002546001600160a01b03600160201b9091041663a9059cbb6116d76000546001600160a01b036101009091041690565b6040516001600160e01b031960e084901b1681526001600160a01b039091166004820152602481018490526044016020604051808303816000875af1158015611724573d6000803e3d6000fd5b505050506040513d601f19601f82011682018060405250810190611748919061378d565b611785576000546040516317e3057d60e31b81523060048201526101009091046001600160a01b03166024820152604481018290526064016104fb565b611900565b6040516370a0823160e01b815230600482015282906001600160a01b038216906370a0823190602401602060405180830381865afa1580156117d0573d6000803e3d6000fd5b505050506040513d601f19601f820116820180604052508101906117f49190613774565b821115611829576040516370a0823160e01b815230600482015282906001600160a01b038316906370a0823190602401611643565b806001600160a01b031663a9059cbb6118506000546001600160a01b036101009091041690565b6040516001600160e01b031960e084901b1681526001600160a01b039091166004820152602481018590526044016020604051808303816000875af115801561189d573d6000803e3d6000fd5b505050506040513d601f19601f820116820180604052508101906118c1919061378d565b6118fe576000546040516317e3057d60e31b81523060048201526101009091046001600160a01b03166024820152604481018390526064016104fb565b505b60005461010090046001600160a01b03166001600160a01b0316826001600160a01b03167f3ab9db27a4cdd8c603a752b62d5fbd93b4b3509fe2596708e9688e42bbac35768360405161195591815260200190565b60405180910390a36002546040516370a0823160e01b81523060048201527f0f3e6fb3ceb369618319f4cdcb672be913a6ce581123b8488c5ee84a3f3b48f391600160201b90046001600160a01b0316906370a0823190602401602060405180830381865afa1580156119cc573d6000803e3d6000fd5b505050506040513d601f19601f820116820180604052508101906119f09190613774565b6040519081526020015b60405180910390a15050565b611a0e61251f565b600254604051632f2ff15d60e01b8152600481018490526001600160a01b038381166024830152600160201b90920490911690632f2ff15d90604401600060405180830381600087803b158015611a6457600080fd5b505af1158015611a78573d6000803e3d6000fd5b50506040513392506001600160a01b038416915084907f2f8788117e7eff1d82e926ec794901d17c78024a50270940304540a733656f0d90600090a45050565b611ac061251f565b6002805463ffffffff83811663ffffffff1983168117909355604080519190921680825260208201939093527f7c762fcc4f45afe3829913a024ea45c617722aec34739245c1e52a7ce483e37a91016119fa565b6001600160a01b0381166000908152600360209081526040808320600401805482518185028101850190935280835260609492939192909184015b82821015611c6a57838290600052602060002090600602016040518060e001604052908160008201805480602002602001604051908101604052809291908181526020018280548015611bdf57602002820191906000526020600020906000905b825461010083900a900460ff16815260206001928301818104948501949093039092029101808411611bb05790505b505050918352505060018201546020820152600282015460409091019060ff16600c811115611c1057611c10613491565b600c811115611c2157611c21613491565b81526003820154602080830191909152600483015460ff808216604085015261010090910416151560608301526005909201546080909101529082526001929092019101611b4f565b505050509050919050565b6005546006546002546040516370a0823160e01b81523060048201526000938493849391929091600160201b90046001600160a01b0316906370a0823190602401602060405180830381865afa158015611cd3573d6000803e3d6000fd5b505050506040513d601f19601f82011682018060405250810190611cf79190613774565b925092509250909192565b6001600160a01b0381166000908152600360209081526040808320600401805482518185028101850190935280835260609492939192909184015b82821015611c6a57838290600052602060002090600602016040518060e001604052908160008201805480602002602001604051908101604052809291908181526020018280548015611dcd57602002820191906000526020600020906000905b825461010083900a900460ff16815260206001928301818104948501949093039092029101808411611d9e5790505b505050918352505060018201546020820152600282015460409091019060ff16600c811115611dfe57611dfe613491565b600c811115611e0f57611e0f613491565b81526003820154602080830191909152600483015460ff808216604085015261010090910416151560608301526005909201546080909101529082526001929092019101611d3d565b611e6061251f565b6001600160a01b038116611e8a57604051631e4fbdf760e01b8152600060048201526024016104fb565b611e93816125a4565b50565b600260015403611eb957604051633ee5aeb560e01b815260040160405180910390fd5b6002600155565b60005460ff1615610de75760405163d93c066560e01b815260040160405180910390fd5b6000805b83518160ff161015611f3b57602460ff16848260ff1681518110611f0e57611f0e613959565b602002602001015160ff161115611f29576000915050611057565b80611f3381613986565b915050611ee8565b50600082600c811115611f5057611f50613491565b03611f6057508151600114611057565b600182600c811115611f7457611f74613491565b03611fcf578251600214611f8a57506000611057565b611fc883600081518110611fa057611fa0613959565b602002602001015184600181518110611fbb57611fbb613959565b602002602001015161263a565b9050611057565b600282600c811115611fe357611fe3613491565b03612002578251600314611ff957506000611057565b611fc8836126d8565b600382600c81111561201657612016613491565b0361203557825160041461202c57506000611057565b611fc8836127ed565b600482600c81111561204957612049613491565b0361206857825160061461205f57506000611057565b611fc883612937565b600582600c81111561207c5761207c613491565b0361208a57611fc883612ac3565b600682600c81111561209e5761209e613491565b036120ac57611fc883612b7e565b600782600c8111156120c0576120c0613491565b106120ce5750815115611057565b50600092915050565b60006120e5602460016139a5565b60ff16826000815181106120fb576120fb613959565b602002602001015161210d91906139d4565b6000848152600460208181526040808420546001600160a01b0316808552600390925283209182018054949550909391929161214b90600190613946565b8154811061215b5761215b613959565b9060005260206000209060060201905060006121f7826000018054806020026020016040519081016040528092919081815260200182805480156121dc57602002820191906000526020600020906000905b825461010083900a900460ff168152602060019283018181049485019490930390920291018084116121ad5790505b505050506002850154600186015460ff909116915088612c44565b60048301805461ffff191660ff88161761010017905560058301819055905080158015906124b957600254604051632474521560e21b81526000805160206140278339815191526004820152306024820152600160201b9091046001600160a01b0316906391d1485490604401602060405180830381865afa158015612281573d6000803e3d6000fd5b505050506040513d601f19601f820116820180604052508101906122a5919061378d565b6122d2576040516359f75fb760e11b815260008051602061402783398151915260048201526024016104fb565b6002546040516340c10f1960e01b81526001600160a01b03878116600483015260248201859052600160201b909204909116906340c10f1990604401600060405180830381600087803b15801561232857600080fd5b505af1925050508015612339575060015b61236857604051635c0b206f60e01b81526001600160a01b0386166004820152602481018390526044016104fb565b6002546040516370a0823160e01b81526001600160a01b0387811660048301819052927faf5edae402c0c0b6e836a00378d20125216486bc516635cba9311f52682ec1f392600160201b909104909116906370a0823190602401602060405180830381865afa1580156123df573d6000803e3d6000fd5b505050506040513d601f19601f820116820180604052508101906124039190613774565b60405190815260200160405180910390a26002546040516370a0823160e01b81523060048201527f0f3e6fb3ceb369618319f4cdcb672be913a6ce581123b8488c5ee84a3f3b48f391600160201b90046001600160a01b0316906370a0823190602401602060405180830381865afa158015612483573d6000803e3d6000fd5b505050506040513d601f19601f820116820180604052508101906124a79190613774565b60405190815260200160405180910390a15b600283015460018401546040518a926001600160a01b038916927f8ca3329a9e2ac60c75bbb3bc9a110f5abec49bcf1fa7fa2dd4d5dd0d3457b7469261250d928c92899260ff909216918b91908a906139e8565b60405180910390a35050505050505050565b6000546001600160a01b03610100909104163314610de75760405163118cdaa760e01b81523360048201526024016104fb565b61255a612c8e565b6000805460ff191690557f5db9ee0a495bf2e6ff9c91a7834c1ba4fdd244a5e8aa4e537bd38aeae4b073aa335b6040516001600160a01b03909116815260200160405180910390a1565b600080546001600160a01b03838116610100818102610100600160a81b0319851617855560405193049190911692909183917f8be0079c531659141344cd1fd0a4f28419497f9722a3daafe3b4186f6b6457e091a35050565b612605611ec0565b6000805460ff191660011790557f62e78cea01bee320cd4e420270b5ea74000d11b0c9f74754ebdbfc544b05a2586125873390565b6000602460ff841611806126515750602460ff8316115b1561265e57506000611057565b8160ff168360ff161115612670579091905b61267b8360016139a5565b60ff168260ff1614801561269b5750612695600384613f94565b60ff1615155b156126a857506001611057565b6126b38360036139a5565b60ff168260ff161480156126cb575060218360ff1611155b156120ce57506001611057565b60006126e660026024613fb6565b60ff16826000815181106126fc576126fc613959565b602002602001015160ff16111561271557506000919050565b60038260008151811061272a5761272a613959565b602002602001015161273c9190613f94565b60ff1660011461274e57506000919050565b8160008151811061276157612761613959565b6020026020010151600161277591906139a5565b60ff168260018151811061278b5761278b613959565b602002602001015160ff161480156110575750816000815181106127b1576127b1613959565b602002602001015160026127c591906139a5565b60ff16826002815181106127db576127db613959565b602002602001015160ff161492915050565b60008060405180608001604052808460008151811061280e5761280e613959565b602002602001015160ff1660ff1681526020018460018151811061283457612834613959565b602002602001015160ff1660ff1681526020018460028151811061285a5761285a613959565b602002602001015160ff1660ff1681526020018460038151811061288057612880613959565b602002602001015160ff1660ff16815250905061289c81612cb1565b8051602060ff90911611806128bf575080516128ba90600390613f94565b60ff16155b156128cd5750600092915050565b80516128da9060016139a5565b60ff16816001602002015160ff1614801561290d575080516128fd9060036139a5565b60ff16816002602002015160ff16145b8015610c7a575080516129219060046139a5565b60ff16816003602002015160ff16149392505050565b6000806040518060c001604052808460008151811061295857612958613959565b602002602001015160ff1660ff1681526020018460018151811061297e5761297e613959565b602002602001015160ff1660ff168152602001846002815181106129a4576129a4613959565b602002602001015160ff1660ff168152602001846003815181106129ca576129ca613959565b602002602001015160ff1660ff168152602001846004815181106129f0576129f0613959565b602002602001015160ff1660ff16815260200184600581518110612a1657612a16613959565b602002602001015160ff1660ff168152509050612a3281612dc1565b8051601f60ff9091161180612a5857508051612a5090600390613f94565b60ff16600114155b15612a665750600092915050565b60015b60068160ff161015612ab9578151612a829082906139a5565b60ff16828260ff1660068110612a9a57612a9a613959565b602002015160ff1614612ab1575060009392505050565b600101612a69565b5060019392505050565b60008151600c14612ad657506000919050565b600082600081518110612aeb57612aeb613959565b602002602001015190508060ff16600114158015612b0d57508060ff16600d14155b8015612b1d57508060ff16601914155b15612b2b5750600092915050565b60005b600c8160ff161015612ab957612b4481836139a5565b60ff16848260ff1681518110612b5c57612b5c613959565b602002602001015160ff1614612b76575060009392505050565b600101612b2e565b60008151600c14612b9157506000919050565b600082600081518110612ba657612ba6613959565b602002602001015190508060ff16600114158015612bc857508060ff16600214155b8015612bd857508060ff16600314155b15612be65750600092915050565b60005b600c8160ff161015612ab957612c00816003613fcf565b612c0a90836139a5565b60ff16848260ff1681518110612c2257612c22613959565b602002602001015160ff1614612c3c575060009392505050565b600101612be9565b6000612c51858584612ed1565b15612c82576000612c61856112ed565b9050612710612c70828661396f565b612c7a9190613ff2565b915050612c86565b5060005b949350505050565b60005460ff16610de757604051638dfc202b60e01b815260040160405180910390fd5b60005b60038160ff16101561103f5760005b612cce826003613fb6565b60ff168160ff161015612db85782612ce78260016139a5565b60ff1660048110612cfa57612cfa613959565b602002015160ff16838260ff1660048110612d1757612d17613959565b602002015160ff161115612db05782612d318260016139a5565b60ff1660048110612d4457612d44613959565b6020020151838260ff1660048110612d5e57612d5e613959565b6020020151848360ff1660048110612d7857612d78613959565b6020020185612d888560016139a5565b60ff1660048110612d9b57612d9b613959565b60ff9384166020919091029190910152911690525b600101612cc3565b50600101612cb4565b60005b60058160ff16101561103f5760005b612dde826005613fb6565b60ff168160ff161015612ec85782612df78260016139a5565b60ff1660068110612e0a57612e0a613959565b602002015160ff16838260ff1660068110612e2757612e27613959565b602002015160ff161115612ec05782612e418260016139a5565b60ff1660068110612e5457612e54613959565b6020020151838260ff1660068110612e6e57612e6e613959565b6020020151848360ff1660068110612e8857612e88613959565b6020020185612e988560016139a5565b60ff1660068110612eab57612eab613959565b60ff9384166020919091029190910152911690525b600101612dd3565b50600101612dc4565b6000602460ff83161115612ee757506000610c7a565b8160ff16600003612f4457600083600c811115612f0657612f06613491565b148015612f14575083516001145b8015612f3d575083600081518110612f2e57612f2e613959565b602002602001015160ff166000145b9050610c7a565b600783600c811115612f5857612f58613491565b03612f6657612f3d826130c8565b600883600c811115612f7a57612f7a613491565b03612f9c57612f88826130c8565b158015612f3d57505060ff81161515610c7a565b600983600c811115612fb057612fb0613491565b03612fd757612fc0600283613f94565b60ff16158015612f3d57505060ff81161515610c7a565b600a83600c811115612feb57612feb613491565b0361300857612ffb600283613f94565b60ff166001149050610c7a565b600b83600c81111561301c5761301c613491565b0361303e5760018260ff1610158015612f3d575050601260ff82161115610c7a565b600c83600c81111561305257613052613491565b036130745760138260ff1610158015612f3d575050602460ff82161115610c7a565b60005b84518160ff161015612c82578260ff16858260ff168151811061309c5761309c613959565b602002602001015160ff16036130b6576001915050610c7a565b806130c081613986565b915050613077565b60008160ff166000036130dd57506000919050565b60408051610240810182526001815260036020808301919091526005928201929092526007606082015260096080820152600c60a0820152600e60c0820152601060e082015260126101008201526013610120820152601561014082015260176101608201526019610180820152601b6101a0820152601e6101c08201526101e08101919091526022610200820152602461022082015260005b60128160ff1610156131c5578360ff16828260ff166012811061319c5761319c613959565b602002015160ff16036131b3575060019392505050565b806131bd81613986565b915050613177565b5060009392505050565b82805482825590600052602060002090601f016020900481019282156132655791602002820160005b8382111561323657835183826101000a81548160ff021916908360ff16021790555092602001926001016020816000010492830192600103026131f8565b80156132635782816101000a81549060ff0219169055600101602081600001049283019260010302613236565b505b506132719291506132c3565b5090565b6040518060e0016040528060608152602001600081526020016000600c8111156132a1576132a1613491565b8152600060208201819052604082018190526060820181905260809091015290565b5b8082111561327157600081556001016132c4565b634e487b7160e01b600052604160045260246000fd5b601f8201601f1916810167ffffffffffffffff81118282101715613314576133146132d8565b6040525050565b600067ffffffffffffffff821115613335576133356132d8565b5060051b60200190565b8035600d811061334e57600080fd5b919050565b60008060006060848603121561336857600080fd5b833567ffffffffffffffff81111561337f57600080fd5b8401601f8101861361339057600080fd5b803561339b8161331b565b6040516133a882826132ee565b80915082815260208101915060208360051b8501019250888311156133cc57600080fd5b6020840193505b828410156133fd57833560ff811681146133ec57600080fd5b8252602093840193909101906133d3565b955061340f925050506020850161333f565b929592945050506040919091013590565b80356001600160a01b038116811461334e57600080fd5b60006020828403121561344957600080fd5b610c7a82613420565b600081518084526020840193506020830160005b8281101561348757815160ff16865260209586019590910190600101613466565b5093949350505050565b634e487b7160e01b600052602160045260246000fd5b600d81106134c557634e487b7160e01b600052602160045260246000fd5b9052565b6000815160e084526134de60e0850182613452565b90506020830151602085015260408301516134fc60408601826134a7565b506060830151606085015260ff608084015116608085015260a0830151151560a085015260c083015160c08501528091505092915050565b602081526000610c7a60208301846134c9565b6000806040838503121561355a57600080fd5b82359150602083013567ffffffffffffffff81111561357857600080fd5b8301601f8101851361358957600080fd5b80356135948161331b565b6040516135a182826132ee565b80915082815260208101915060208360051b8501019250878311156135c557600080fd5b6020840193505b828410156135e75783358252602093840193909101906135cc565b809450505050509250929050565b60006020828403121561360757600080fd5b610c7a8261333f565b600082825180855260208501945060208160051b8301016020850160005b8381101561366057601f1985840301885261364a8383516134c9565b602098890198909350919091019060010161362e565b50909695505050505050565b602081526000825160e06020840152613689610100840182613452565b90506020840151604084015260408401516060840152606084015160808401526080840151601f198483030160a08501526136c48282613610565b91505060a084015160c084015260c084015160e08401528091505092915050565b600080604083850312156136f857600080fd5b8235915061370860208401613420565b90509250929050565b6000806040838503121561372457600080fd5b61372d83613420565b946020939093013593505050565b60006020828403121561374d57600080fd5b813563ffffffff81168114610c7a57600080fd5b602081526000610c7a6020830184613610565b60006020828403121561378657600080fd5b5051919050565b60006020828403121561379f57600080fd5b81518015158114610c7a57600080fd5b600060033d11156137c85760046000803e5060005160e01c5b90565b600060443d10156137d95790565b6040513d600319016004823e80513d602482011167ffffffffffffffff8211171561380357505090565b808201805167ffffffffffffffff81111561381f575050505090565b3d8401600319018282016020011115613839575050505090565b613848602082850101856132ee565b509392505050565b602081526000825180602084015260005b8181101561387e5760208186018101516040868401015201613861565b506000604082850101526040601f19601f83011684010191505092915050565b634e487b7160e01b600052601160045260246000fd5b808201808211156110575761105761389e565b6000600182016138d9576138d961389e565b5060010190565b60808082528551908201819052600090602087019060a0840190835b8181101561391d57835160ff168352602093840193909201916001016138fc565b5050809250505084602083015261393760408301856134a7565b82606083015295945050505050565b818103818111156110575761105761389e565b634e487b7160e01b600052603260045260246000fd5b80820281158282048414176110575761105761389e565b600060ff821660ff810361399c5761399c61389e565b60010192915050565b60ff81811683821601908111156110575761105761389e565b634e487b7160e01b600052601260045260246000fd5b6000826139e3576139e36139be565b500690565b600060c0820160ff89168352876020840152613a0760408401886134a7565b60c06060840152855480825260008781526020808220930191905b81601f82011015613bf557835460ff81168452600881901c60ff166020850152601081901c60ff166040850152601881901c60ff166060850152602081901c60ff166080850152602881901c60ff1660a0850152603081901c60ff1660c0850152603881901c60ff1660e0850152604081901c60ff16610100850152604881901c60ff16610120850152605081901c60ff16610140850152605881901c60ff16610160850152606081901c60ff16610180850152606881901c60ff166101a0850152607081901c60ff166101c0850152607881901c60ff166101e0850152608081901c60ff16610200850152608881901c60ff16610220850152609081901c60ff16610240850152609881901c60ff1661026085015260a081901c60ff1661028085015260a881901c60ff166102a085015260b081901c60ff166102c085015260b881901c60ff166102e085015260c081901c60ff1661030085015260c881901c60ff1661032085015260d081901c60ff1661034085015260d881901c60ff1661036085015260e081901c60ff1661038085015260e881901c60ff166103a085015260f081901c60ff166103c085015260f881901c6103e085015250600193909301926104009290920191602001613a22565b92549281811015613c105760ff841683526020909201916001015b81811015613c2c5760ff600885901c1683526020909201916001015b81811015613c485760ff601085901c1683526020909201916001015b81811015613c645760ff601885901c1683526020909201916001015b81811015613c8157602084901c60ff168352602092909201916001015b81811015613c9d5760ff602885901c1683526020909201916001015b81811015613cb95760ff603085901c1683526020909201916001015b81811015613cd55760ff603885901c1683526020909201916001015b81811015613cf15760ff604085901c1683526020909201916001015b81811015613d0d5760ff604885901c1683526020909201916001015b81811015613d295760ff605085901c1683526020909201916001015b81811015613d455760ff605885901c1683526020909201916001015b81811015613d615760ff606085901c1683526020909201916001015b81811015613d7d5760ff606885901c1683526020909201916001015b81811015613d995760ff607085901c1683526020909201916001015b81811015613db55760ff607885901c1683526020909201916001015b81811015613dd15760ff608085901c1683526020909201916001015b81811015613ded5760ff608885901c1683526020909201916001015b81811015613e095760ff609085901c1683526020909201916001015b81811015613e255760ff609885901c1683526020909201916001015b81811015613e415760ff60a085901c1683526020909201916001015b81811015613e5d5760ff60a885901c1683526020909201916001015b81811015613e795760ff60b085901c1683526020909201916001015b81811015613e955760ff60b885901c1683526020909201916001015b81811015613eb15760ff60c085901c1683526020909201916001015b81811015613ecd5760ff60c885901c1683526020909201916001015b81811015613ee95760ff60d085901c1683526020909201916001015b81811015613f055760ff60d885901c1683526020909201916001015b81811015613f215760ff60e085901c1683526020909201916001015b81811015613f3d5760ff60e885901c1683526020909201916001015b81811015613f595760ff60f085901c1683526020909201916001015b81811015613f6f5760f884901c83526020830192505b50506080840186905284151560a08501529150613f899050565b979650505050505050565b600060ff831680613fa757613fa76139be565b8060ff84160691505092915050565b60ff82811682821603908111156110575761105761389e565b60ff8181168382160290811690818114613feb57613feb61389e565b5092915050565b600082614001576140016139be565b50049056fe3c11d16cbaffd01df69ce1c404f6340ee057498f5f00246190ea54220576a8489f2df0fed2c77648de5860a4cc508cd0818c85b8b8a1ab4ceeef8d981c8956a6a2646970667358221220d05047bd10c5f64ddc9b59cba2b974b3e8d1246f6b314b3fbb70c187231f8d8d64736f6c634300081a0033","linkReferences":{}},"methodIdentifiers":{"BURNER_ROLE()":"282c51f3","DENOMINATOR()":"918f8674","MAX_NUMBER()":"fea9b572","MINTER_ROLE()":"d5391393","emergencyWithdraw(address,uint256)":"95ccea67","getBetHistory(address)":"ce84a53b","getBetTypeAsUint(uint8)":"3388721a","getCallbackGasLimit()":"de8be8e7","getContractBalance()":"6f9fb98a","getContractStats()":"dfe6b5d6","getLastPlayerBet(address)":"12f011f4","getPayoutMultiplier(uint8)":"5b13c639","getPlayerBets(address)":"eaf07c8c","getUserGameData(address)":"4efa3b54","grantTokenRole(bytes32,address)":"99945cb0","myToken()":"b8fcf937","owner()":"8da5cb5b","pause()":"8456cb59","paused()":"5c975abb","placeBetAndSpin(uint8[],uint8,uint256)":"07aa6955","rawFulfillRandomWords(uint256,uint256[])":"1fe543e3","renounceOwnership()":"715018a6","revokeTokenRole(bytes32,address)":"93e955bd","totalGamesPlayed()":"5c492129","totalPayoutAmount()":"e7efcfc2","transferOwnership(address)":"f2fde38b","unpause()":"3f4ba83a","updateCallbackGasLimit(uint32)":"b0e8d086","userData(address)":"c8910913","verifyContractRoles()":"10e05deb"},"id":50}