{"abi":[{"type":"constructor","inputs":[{"name":"name","type":"string","internalType":"string"},{"name":"symbol","type":"string","internalType":"string"}],"stateMutability":"nonpayable"},{"type":"function","name":"BURNER_ROLE","inputs":[],"outputs":[{"name":"","type":"bytes32","internalType":"bytes32"}],"stateMutability":"view"},{"type":"function","name":"DEFAULT_ADMIN_ROLE","inputs":[],"outputs":[{"name":"","type":"bytes32","internalType":"bytes32"}],"stateMutability":"view"},{"type":"function","name":"DOMAIN_SEPARATOR","inputs":[],"outputs":[{"name":"","type":"bytes32","internalType":"bytes32"}],"stateMutability":"view"},{"type":"function","name":"MINTER_ROLE","inputs":[],"outputs":[{"name":"","type":"bytes32","internalType":"bytes32"}],"stateMutability":"view"},{"type":"function","name":"allowance","inputs":[{"name":"owner","type":"address","internalType":"address"},{"name":"spender","type":"address","internalType":"address"}],"outputs":[{"name":"","type":"uint256","internalType":"uint256"}],"stateMutability":"view"},{"type":"function","name":"approve","inputs":[{"name":"spender","type":"address","internalType":"address"},{"name":"value","type":"uint256","internalType":"uint256"}],"outputs":[{"name":"","type":"bool","internalType":"bool"}],"stateMutability":"nonpayable"},{"type":"function","name":"balanceOf","inputs":[{"name":"account","type":"address","internalType":"address"}],"outputs":[{"name":"","type":"uint256","internalType":"uint256"}],"stateMutability":"view"},{"type":"function","name":"burn","inputs":[{"name":"from","type":"address","internalType":"address"},{"name":"amount","type":"uint256","internalType":"uint256"}],"outputs":[],"stateMutability":"nonpayable"},{"type":"function","name":"burnFrom","inputs":[{"name":"account","type":"address","internalType":"address"},{"name":"amount","type":"uint256","internalType":"uint256"}],"outputs":[],"stateMutability":"nonpayable"},{"type":"function","name":"decimals","inputs":[],"outputs":[{"name":"","type":"uint8","internalType":"uint8"}],"stateMutability":"view"},{"type":"function","name":"eip712Domain","inputs":[],"outputs":[{"name":"fields","type":"bytes1","internalType":"bytes1"},{"name":"name","type":"string","internalType":"string"},{"name":"version","type":"string","internalType":"string"},{"name":"chainId","type":"uint256","internalType":"uint256"},{"name":"verifyingContract","type":"address","internalType":"address"},{"name":"salt","type":"bytes32","internalType":"bytes32"},{"name":"extensions","type":"uint256[]","internalType":"uint256[]"}],"stateMutability":"view"},{"type":"function","name":"getMinterBurnerAddresses","inputs":[],"outputs":[{"name":"minters","type":"address[]","internalType":"address[]"},{"name":"burners","type":"address[]","internalType":"address[]"}],"stateMutability":"view"},{"type":"function","name":"getRoleAdmin","inputs":[{"name":"role","type":"bytes32","internalType":"bytes32"}],"outputs":[{"name":"","type":"bytes32","internalType":"bytes32"}],"stateMutability":"view"},{"type":"function","name":"grantRole","inputs":[{"name":"role","type":"bytes32","internalType":"bytes32"},{"name":"account","type":"address","internalType":"address"}],"outputs":[],"stateMutability":"nonpayable"},{"type":"function","name":"hasRole","inputs":[{"name":"role","type":"bytes32","internalType":"bytes32"},{"name":"account","type":"address","internalType":"address"}],"outputs":[{"name":"","type":"bool","internalType":"bool"}],"stateMutability":"view"},{"type":"function","name":"mint","inputs":[{"name":"to","type":"address","internalType":"address"},{"name":"amount","type":"uint256","internalType":"uint256"}],"outputs":[],"stateMutability":"nonpayable"},{"type":"function","name":"name","inputs":[],"outputs":[{"name":"","type":"string","internalType":"string"}],"stateMutability":"view"},{"type":"function","name":"nonces","inputs":[{"name":"owner","type":"address","internalType":"address"}],"outputs":[{"name":"","type":"uint256","internalType":"uint256"}],"stateMutability":"view"},{"type":"function","name":"permit","inputs":[{"name":"owner","type":"address","internalType":"address"},{"name":"spender","type":"address","internalType":"address"},{"name":"value","type":"uint256","internalType":"uint256"},{"name":"deadline","type":"uint256","internalType":"uint256"},{"name":"v","type":"uint8","internalType":"uint8"},{"name":"r","type":"bytes32","internalType":"bytes32"},{"name":"s","type":"bytes32","internalType":"bytes32"}],"outputs":[],"stateMutability":"nonpayable"},{"type":"function","name":"renounceRole","inputs":[{"name":"role","type":"bytes32","internalType":"bytes32"},{"name":"callerConfirmation","type":"address","internalType":"address"}],"outputs":[],"stateMutability":"nonpayable"},{"type":"function","name":"revokeRole","inputs":[{"name":"role","type":"bytes32","internalType":"bytes32"},{"name":"account","type":"address","internalType":"address"}],"outputs":[],"stateMutability":"nonpayable"},{"type":"function","name":"supportsInterface","inputs":[{"name":"interfaceId","type":"bytes4","internalType":"bytes4"}],"outputs":[{"name":"","type":"bool","internalType":"bool"}],"stateMutability":"view"},{"type":"function","name":"symbol","inputs":[],"outputs":[{"name":"","type":"string","internalType":"string"}],"stateMutability":"view"},{"type":"function","name":"totalSupply","inputs":[],"outputs":[{"name":"","type":"uint256","internalType":"uint256"}],"stateMutability":"view"},{"type":"function","name":"transfer","inputs":[{"name":"to","type":"address","internalType":"address"},{"name":"value","type":"uint256","internalType":"uint256"}],"outputs":[{"name":"","type":"bool","internalType":"bool"}],"stateMutability":"nonpayable"},{"type":"function","name":"transferFrom","inputs":[{"name":"from","type":"address","internalType":"address"},{"name":"to","type":"address","internalType":"address"},{"name":"value","type":"uint256","internalType":"uint256"}],"outputs":[{"name":"","type":"bool","internalType":"bool"}],"stateMutability":"nonpayable"},{"type":"event","name":"Approval","inputs":[{"name":"owner","type":"address","indexed":true,"internalType":"address"},{"name":"spender","type":"address","indexed":true,"internalType":"address"},{"name":"value","type":"uint256","indexed":false,"internalType":"uint256"}],"anonymous":false},{"type":"event","name":"EIP712DomainChanged","inputs":[],"anonymous":false},{"type":"event","name":"RoleAdminChanged","inputs":[{"name":"role","type":"bytes32","indexed":true,"internalType":"bytes32"},{"name":"previousAdminRole","type":"bytes32","indexed":true,"internalType":"bytes32"},{"name":"newAdminRole","type":"bytes32","indexed":true,"internalType":"bytes32"}],"anonymous":false},{"type":"event","name":"RoleGranted","inputs":[{"name":"role","type":"bytes32","indexed":true,"internalType":"bytes32"},{"name":"account","type":"address","indexed":true,"internalType":"address"},{"name":"sender","type":"address","indexed":true,"internalType":"address"}],"anonymous":false},{"type":"event","name":"RoleRevoked","inputs":[{"name":"role","type":"bytes32","indexed":true,"internalType":"bytes32"},{"name":"account","type":"address","indexed":true,"internalType":"address"},{"name":"sender","type":"address","indexed":true,"internalType":"address"}],"anonymous":false},{"type":"event","name":"Transfer","inputs":[{"name":"from","type":"address","indexed":true,"internalType":"address"},{"name":"to","type":"address","indexed":true,"internalType":"address"},{"name":"value","type":"uint256","indexed":false,"internalType":"uint256"}],"anonymous":false},{"type":"error","name":"AccessControlBadConfirmation","inputs":[]},{"type":"error","name":"AccessControlUnauthorizedAccount","inputs":[{"name":"account","type":"address","internalType":"address"},{"name":"neededRole","type":"bytes32","internalType":"bytes32"}]},{"type":"error","name":"ECDSAInvalidSignature","inputs":[]},{"type":"error","name":"ECDSAInvalidSignatureLength","inputs":[{"name":"length","type":"uint256","internalType":"uint256"}]},{"type":"error","name":"ECDSAInvalidSignatureS","inputs":[{"name":"s","type":"bytes32","internalType":"bytes32"}]},{"type":"error","name":"ERC20InsufficientAllowance","inputs":[{"name":"spender","type":"address","internalType":"address"},{"name":"allowance","type":"uint256","internalType":"uint256"},{"name":"needed","type":"uint256","internalType":"uint256"}]},{"type":"error","name":"ERC20InsufficientBalance","inputs":[{"name":"sender","type":"address","internalType":"address"},{"name":"balance","type":"uint256","internalType":"uint256"},{"name":"needed","type":"uint256","internalType":"uint256"}]},{"type":"error","name":"ERC20InvalidApprover","inputs":[{"name":"approver","type":"address","internalType":"address"}]},{"type":"error","name":"ERC20InvalidReceiver","inputs":[{"name":"receiver","type":"address","internalType":"address"}]},{"type":"error","name":"ERC20InvalidSender","inputs":[{"name":"sender","type":"address","internalType":"address"}]},{"type":"error","name":"ERC20InvalidSpender","inputs":[{"name":"spender","type":"address","internalType":"address"}]},{"type":"error","name":"ERC2612ExpiredSignature","inputs":[{"name":"deadline","type":"uint256","internalType":"uint256"}]},{"type":"error","name":"ERC2612InvalidSigner","inputs":[{"name":"signer","type":"address","internalType":"address"},{"name":"owner","type":"address","internalType":"address"}]},{"type":"error","name":"InvalidAccountNonce","inputs":[{"name":"account","type":"address","internalType":"address"},{"name":"currentNonce","type":"uint256","internalType":"uint256"}]},{"type":"error","name":"InvalidShortString","inputs":[]},{"type":"error","name":"StringTooLong","inputs":[{"name":"str","type":"string","internalType":"string"}]}],"bytecode":{"object":"0x61016060405234801561001157600080fd5b5060405161214e38038061214e83398101604081905261003091610561565b6040805180820190915260018152603160f81b6020820152829081908184600361005a8382610653565b5060046100678282610653565b5061007791508390506005610216565b61012052610086816006610216565b61014052815160208084019190912060e052815190820120610100524660a05261011360e05161010051604080517f8b73c3c69bb8fe3d512ecc4cf759cc79239f7b179b0ffacaa9a75d522b39400f60208201529081019290925260608201524660808201523060a082015260009060c00160405160208183030381529060405280519060200120905090565b60805250503060c05250610128600033610249565b506101537f9f2df0fed2c77648de5860a4cc508cd0818c85b8b8a1ab4ceeef8d981c8956a633610249565b5061017e7f3c11d16cbaffd01df69ce1c404f6340ee057498f5f00246190ea54220576a84833610249565b506009805460018082019092557f6e1540171b6c0c960b71a7020d9f60077f6af931a8bbf590da0223dacf75c7af018054336001600160a01b03199182168117909255600a805493840181556000527fc65a7bb8d6351c1cf70c95a316cc6a92839c986682d98bc35f958f4883f9d2a89092018054909216811790915561020f9069152d02c7e14af68000006102f7565b5050610789565b60006020835110156102325761022b83610336565b9050610243565b8161023d8482610653565b5060ff90505b92915050565b60008281526008602090815260408083206001600160a01b038516845290915281205460ff166102ef5760008381526008602090815260408083206001600160a01b03861684529091529020805460ff191660011790556102a73390565b6001600160a01b0316826001600160a01b0316847f2f8788117e7eff1d82e926ec794901d17c78024a50270940304540a733656f0d60405160405180910390a4506001610243565b506000610243565b6001600160a01b0382166103265760405163ec442f0560e01b8152600060048201526024015b60405180910390fd5b61033260008383610374565b5050565b600080829050601f81511115610361578260405163305a27a960e01b815260040161031d9190610711565b805161036c82610744565b179392505050565b6001600160a01b03831661039f5780600260008282546103949190610768565b909155506104119050565b6001600160a01b038316600090815260208190526040902054818110156103f25760405163391434e360e21b81526001600160a01b0385166004820152602481018290526044810183905260640161031d565b6001600160a01b03841660009081526020819052604090209082900390555b6001600160a01b03821661042d5760028054829003905561044c565b6001600160a01b03821660009081526020819052604090208054820190555b816001600160a01b0316836001600160a01b03167fddf252ad1be2c89b69c2b068fc378daa952ba7f163c4a11628f55a4df523b3ef8360405161049191815260200190565b60405180910390a3505050565b634e487b7160e01b600052604160045260246000fd5b60005b838110156104cf5781810151838201526020016104b7565b50506000910152565b600082601f8301126104e957600080fd5b81516001600160401b038111156105025761050261049e565b604051601f8201601f19908116603f011681016001600160401b03811182821017156105305761053061049e565b60405281815283820160200185101561054857600080fd5b6105598260208301602087016104b4565b949350505050565b6000806040838503121561057457600080fd5b82516001600160401b0381111561058a57600080fd5b610596858286016104d8565b602085015190935090506001600160401b038111156105b457600080fd5b6105c0858286016104d8565b9150509250929050565b600181811c908216806105de57607f821691505b6020821081036105fe57634e487b7160e01b600052602260045260246000fd5b50919050565b601f82111561064e57806000526020600020601f840160051c8101602085101561062b5750805b601f840160051c820191505b8181101561064b5760008155600101610637565b50505b505050565b81516001600160401b0381111561066c5761066c61049e565b6106808161067a84546105ca565b84610604565b6020601f8211600181146106b4576000831561069c5750848201515b600019600385901b1c1916600184901b17845561064b565b600084815260208120601f198516915b828110156106e457878501518255602094850194600190920191016106c4565b50848210156107025786840151600019600387901b60f8161c191681555b50505050600190811b01905550565b60208152600082518060208401526107308160408501602087016104b4565b601f01601f19169190910160400192915050565b805160208083015191908110156105fe5760001960209190910360031b1b16919050565b8082018082111561024357634e487b7160e01b600052601160045260246000fd5b60805160a05160c05160e05161010051610120516101405161196b6107e36000396000610e5101526000610e2401526000610cc901526000610ca101526000610bfc01526000610c2601526000610c50015261196b6000f3fe608060405234801561001057600080fd5b506004361061018e5760003560e01c806370a08231116100de5780639dc29fac11610097578063d505accf11610071578063d505accf1461035b578063d53913931461036e578063d547741f14610383578063dd62ed3e1461039657600080fd5b80639dc29fac1461032d578063a217fddf14610340578063a9059cbb1461034857600080fd5b806370a08231146102a857806379cc6790146102d15780637ecebe00146102e457806384b0196e146102f757806391d148541461031257806395d89b411461032557600080fd5b8063282c51f31161014b578063313ce56711610125578063313ce5671461026b5780633644e5151461027a57806336568abe1461028257806340c10f191461029557600080fd5b8063282c51f31461022b5780632f1734e9146102405780632f2ff15d1461025657600080fd5b806301ffc9a71461019357806306fdde03146101bb578063095ea7b3146101d057806318160ddd146101e357806323b872dd146101f5578063248a9ca314610208575b600080fd5b6101a66101a136600461152f565b6103cf565b60405190151581526020015b60405180910390f35b6101c3610430565b6040516101b2919061159f565b6101a66101de3660046115ce565b6104c2565b6002545b6040519081526020016101b2565b6101a66102033660046115f8565b6104da565b6101e7610216366004611635565b60009081526008602052604090206001015490565b6101e76000805160206118f683398151915281565b6102486104fe565b6040516101b2929190611693565b6102696102643660046116c1565b6105c5565b005b604051601281526020016101b2565b6101e76106df565b6102696102903660046116c1565b6106ee565b6102696102a33660046115ce565b610721565b6101e76102b63660046116ed565b6001600160a01b031660009081526020819052604090205490565b6102696102df3660046115ce565b610743565b6101e76102f23660046116ed565b6107e7565b6102ff6107f2565b6040516101b29796959493929190611708565b6101a66103203660046116c1565b610838565b6101c3610866565b61026961033b3660046115ce565b610875565b6101e7600081565b6101a66103563660046115ce565b610897565b6102696103693660046117a0565b6108a5565b6101e760008051602061191683398151915281565b6102696103913660046116c1565b6109df565b6101e76103a4366004611813565b6001600160a01b03918216600090815260016020908152604080832093909416825291909152205490565b60006001600160e01b0319821663cf4eff8760e01b148061040057506001600160e01b031982166336372b0760e01b145b8061041b57506001600160e01b03198216634ec7fbed60e11b145b8061042a575061042a82610a45565b92915050565b60606003805461043f9061183d565b80601f016020809104026020016040519081016040528092919081815260200182805461046b9061183d565b80156104b85780601f1061048d576101008083540402835291602001916104b8565b820191906000526020600020905b81548152906001019060200180831161049b57829003601f168201915b5050505050905090565b6000336104d0818585610a7a565b5060019392505050565b6000336104e8858285610a87565b6104f3858585610aff565b506001949350505050565b6060806009600a8180548060200260200160405190810160405280929190818152602001828054801561055a57602002820191906000526020600020905b81546001600160a01b0316815260019091019060200180831161053c575b50505050509150808054806020026020016040519081016040528092919081815260200182805480156105b657602002820191906000526020600020905b81546001600160a01b03168152600190910190602001808311610598575b50505050509050915091509091565b6000828152600860205260409020600101546105e081610b5e565b6105ea8383610b6b565b6000805160206119168339815191528314801561060f575061060d600983610b90565b155b1561066457600980546001810182556000919091527f6e1540171b6c0c960b71a7020d9f60077f6af931a8bbf590da0223dacf75c7af0180546001600160a01b0319166001600160a01b038416179055505050565b6000805160206118f6833981519152831480156106895750610687600a83610b90565b155b156106da57600a80546001810182556000919091527fc65a7bb8d6351c1cf70c95a316cc6a92839c986682d98bc35f958f4883f9d2a80180546001600160a01b0319166001600160a01b0384161790555b505050565b60006106e9610bef565b905090565b6001600160a01b03811633146107175760405163334bd91960e11b815260040160405180910390fd5b6106da8282610d1a565b60008051602061191683398151915261073981610b5e565b6106da8383610d8f565b6000805160206118f683398151915261075b81610b5e565b600061076784336103a4565b9050828110156107ca5760405162461bcd60e51b8152602060048201526024808201527f45524332303a206275726e20616d6f756e74206578636565647320616c6c6f77604482015263616e636560e01b60648201526084015b60405180910390fd5b6107d78433858403610a7a565b6107e18484610dc9565b50505050565b600061042a82610dff565b600060608060008060006060610806610e1d565b61080e610e4a565b60408051600080825260208201909252600f60f81b9b939a50919850469750309650945092509050565b60008281526008602090815260408083206001600160a01b038516845290915281205460ff165b9392505050565b60606004805461043f9061183d565b6000805160206118f683398151915261088d81610b5e565b6106da8383610dc9565b6000336104d0818585610aff565b834211156108c95760405163313c898160e11b8152600481018590526024016107c1565b60007f6e71edae12b1b97f4d1f60370fef10105fa2faae0126114a169c64845d6126c98888886109168c6001600160a01b0316600090815260076020526040902080546001810190915590565b6040805160208101969096526001600160a01b0394851690860152929091166060840152608083015260a082015260c0810186905260e001604051602081830303815290604052805190602001209050600061097182610e77565b9050600061098182878787610ea4565b9050896001600160a01b0316816001600160a01b0316146109c8576040516325c0072360e11b81526001600160a01b0380831660048301528b1660248201526044016107c1565b6109d38a8a8a610a7a565b50505050505050505050565b6000828152600860205260409020600101546109fa81610b5e565b610a048383610d1a565b506000805160206119168339815191528303610a25576106da600983610ed2565b6000805160206118f683398151915283036106da576106da600a83610ed2565b60006001600160e01b03198216637965db0b60e01b148061042a57506301ffc9a760e01b6001600160e01b031983161461042a565b6106da8383836001610fd1565b6001600160a01b0383811660009081526001602090815260408083209386168352929052205460001981146107e15781811015610af057604051637dc7a0d960e11b81526001600160a01b038416600482015260248101829052604481018390526064016107c1565b6107e184848484036000610fd1565b6001600160a01b038316610b2957604051634b637e8f60e11b8152600060048201526024016107c1565b6001600160a01b038216610b535760405163ec442f0560e01b8152600060048201526024016107c1565b6106da8383836110a6565b610b6881336111d0565b50565b600082815260086020526040902060010154610b8681610b5e565b6107e18383611209565b6000805b8354811015610be557826001600160a01b0316848281548110610bb957610bb9611877565b6000918252602090912001546001600160a01b031603610bdd57600191505061042a565b600101610b94565b5060009392505050565b6000306001600160a01b037f000000000000000000000000000000000000000000000000000000000000000016148015610c4857507f000000000000000000000000000000000000000000000000000000000000000046145b15610c7257507f000000000000000000000000000000000000000000000000000000000000000090565b6106e9604080517f8b73c3c69bb8fe3d512ecc4cf759cc79239f7b179b0ffacaa9a75d522b39400f60208201527f0000000000000000000000000000000000000000000000000000000000000000918101919091527f000000000000000000000000000000000000000000000000000000000000000060608201524660808201523060a082015260009060c00160405160208183030381529060405280519060200120905090565b6000610d268383610838565b15610d875760008381526008602090815260408083206001600160a01b0386168085529252808320805460ff1916905551339286917ff6391f5c32d9c69d2a47ea670b442974b53935d1edc7fd64eb21e047a839171b9190a450600161042a565b50600061042a565b6001600160a01b038216610db95760405163ec442f0560e01b8152600060048201526024016107c1565b610dc5600083836110a6565b5050565b6001600160a01b038216610df357604051634b637e8f60e11b8152600060048201526024016107c1565b610dc5826000836110a6565b6001600160a01b03811660009081526007602052604081205461042a565b60606106e97f00000000000000000000000000000000000000000000000000000000000000006005611295565b60606106e97f00000000000000000000000000000000000000000000000000000000000000006006611295565b600061042a610e84610bef565b8360405161190160f01b8152600281019290925260228201526042902090565b600080600080610eb688888888611340565b925092509250610ec6828261140f565b50909695505050505050565b60005b82548110156106da57816001600160a01b0316838281548110610efa57610efa611877565b6000918252602090912001546001600160a01b031603610fc95782548390610f24906001906118a3565b81548110610f3457610f34611877565b9060005260206000200160009054906101000a90046001600160a01b0316838281548110610f6457610f64611877565b9060005260206000200160006101000a8154816001600160a01b0302191690836001600160a01b0316021790555082805480610fa257610fa26118b6565b600082815260209020810160001990810180546001600160a01b0319169055019055505050565b600101610ed5565b6001600160a01b038416610ffb5760405163e602df0560e01b8152600060048201526024016107c1565b6001600160a01b03831661102557604051634a1406b160e11b8152600060048201526024016107c1565b6001600160a01b03808516600090815260016020908152604080832093871683529290522082905580156107e157826001600160a01b0316846001600160a01b03167f8c5be1e5ebec7d5bd14f71427d1e84f3dd0314c0f7b2291e5b200ac8c7c3b9258460405161109891815260200190565b60405180910390a350505050565b6001600160a01b0383166110d15780600260008282546110c691906118cc565b909155506111439050565b6001600160a01b038316600090815260208190526040902054818110156111245760405163391434e360e21b81526001600160a01b038516600482015260248101829052604481018390526064016107c1565b6001600160a01b03841660009081526020819052604090209082900390555b6001600160a01b03821661115f5760028054829003905561117e565b6001600160a01b03821660009081526020819052604090208054820190555b816001600160a01b0316836001600160a01b03167fddf252ad1be2c89b69c2b068fc378daa952ba7f163c4a11628f55a4df523b3ef836040516111c391815260200190565b60405180910390a3505050565b6111da8282610838565b610dc55760405163e2517d3f60e01b81526001600160a01b0382166004820152602481018390526044016107c1565b60006112158383610838565b610d875760008381526008602090815260408083206001600160a01b03861684529091529020805460ff1916600117905561124d3390565b6001600160a01b0316826001600160a01b0316847f2f8788117e7eff1d82e926ec794901d17c78024a50270940304540a733656f0d60405160405180910390a450600161042a565b606060ff83146112af576112a8836114c8565b905061042a565b8180546112bb9061183d565b80601f01602080910402602001604051908101604052809291908181526020018280546112e79061183d565b80156113345780601f1061130957610100808354040283529160200191611334565b820191906000526020600020905b81548152906001019060200180831161131757829003601f168201915b5050505050905061042a565b600080807f7fffffffffffffffffffffffffffffff5d576e7357a4501ddfe92f46681b20a084111561137b5750600091506003905082611405565b604080516000808252602082018084528a905260ff891692820192909252606081018790526080810186905260019060a0016020604051602081039080840390855afa1580156113cf573d6000803e3d6000fd5b5050604051601f1901519150506001600160a01b0381166113fb57506000925060019150829050611405565b9250600091508190505b9450945094915050565b6000826003811115611423576114236118df565b0361142c575050565b6001826003811115611440576114406118df565b0361145e5760405163f645eedf60e01b815260040160405180910390fd5b6002826003811115611472576114726118df565b036114935760405163fce698f760e01b8152600481018290526024016107c1565b60038260038111156114a7576114a76118df565b03610dc5576040516335e2f38360e21b8152600481018290526024016107c1565b606060006114d583611507565b604080516020808252818301909252919250600091906020820181803683375050509182525060208101929092525090565b600060ff8216601f81111561042a57604051632cd44ac360e21b815260040160405180910390fd5b60006020828403121561154157600080fd5b81356001600160e01b03198116811461085f57600080fd5b6000815180845260005b8181101561157f57602081850181015186830182015201611563565b506000602082860101526020601f19601f83011685010191505092915050565b60208152600061085f6020830184611559565b80356001600160a01b03811681146115c957600080fd5b919050565b600080604083850312156115e157600080fd5b6115ea836115b2565b946020939093013593505050565b60008060006060848603121561160d57600080fd5b611616846115b2565b9250611624602085016115b2565b929592945050506040919091013590565b60006020828403121561164757600080fd5b5035919050565b600081518084526020840193506020830160005b828110156116895781516001600160a01b0316865260209586019590910190600101611662565b5093949350505050565b6040815260006116a6604083018561164e565b82810360208401526116b8818561164e565b95945050505050565b600080604083850312156116d457600080fd5b823591506116e4602084016115b2565b90509250929050565b6000602082840312156116ff57600080fd5b61085f826115b2565b60ff60f81b8816815260e06020820152600061172760e0830189611559565b82810360408401526117398189611559565b606084018890526001600160a01b038716608085015260a0840186905283810360c08501528451808252602080870193509091019060005b8181101561178f578351835260209384019390920191600101611771565b50909b9a5050505050505050505050565b600080600080600080600060e0888a0312156117bb57600080fd5b6117c4886115b2565b96506117d2602089016115b2565b95506040880135945060608801359350608088013560ff811681146117f657600080fd5b9699959850939692959460a0840135945060c09093013592915050565b6000806040838503121561182657600080fd5b61182f836115b2565b91506116e4602084016115b2565b600181811c9082168061185157607f821691505b60208210810361187157634e487b7160e01b600052602260045260246000fd5b50919050565b634e487b7160e01b600052603260045260246000fd5b634e487b7160e01b600052601160045260246000fd5b8181038181111561042a5761042a61188d565b634e487b7160e01b600052603160045260246000fd5b8082018082111561042a5761042a61188d565b634e487b7160e01b600052602160045260246000fdfe3c11d16cbaffd01df69ce1c404f6340ee057498f5f00246190ea54220576a8489f2df0fed2c77648de5860a4cc508cd0818c85b8b8a1ab4ceeef8d981c8956a6a264697066735822122073c766cda4ae5dca70d2498e80c7da442d8bce48d879a5de3930078b6cf9fc6864736f6c634300081a0033","linkReferences":{}},"methodIdentifiers":{"BURNER_ROLE()":"282c51f3","DEFAULT_ADMIN_ROLE()":"a217fddf","DOMAIN_SEPARATOR()":"3644e515","MINTER_ROLE()":"d5391393","allowance(address,address)":"dd62ed3e","approve(address,uint256)":"095ea7b3","balanceOf(address)":"70a08231","burn(address,uint256)":"9dc29fac","burnFrom(address,uint256)":"79cc6790","decimals()":"313ce567","eip712Domain()":"84b0196e","getMinterBurnerAddresses()":"2f1734e9","getRoleAdmin(bytes32)":"248a9ca3","grantRole(bytes32,address)":"2f2ff15d","hasRole(bytes32,address)":"91d14854","mint(address,uint256)":"40c10f19","name()":"06fdde03","nonces(address)":"7ecebe00","permit(address,address,uint256,uint256,uint8,bytes32,bytes32)":"d505accf","renounceRole(bytes32,address)":"36568abe","revokeRole(bytes32,address)":"d547741f","supportsInterface(bytes4)":"01ffc9a7","symbol()":"95d89b41","totalSupply()":"18160ddd","transfer(address,uint256)":"a9059cbb","transferFrom(address,address,uint256)":"23b872dd"},"id":49}